:100000000C9468000C94E3010C9410020C94900082
:100010000C9490000C9490000C9490000C942A077F
:100020000C9490000C9490000C9490000C94900010
:100030000C9490000C9490000C9490000C94900000
:100040000C943D020C9490000C9452030C94860383
:100050000C9490000C9490000C9490000C949000E0
:100060000C940E090C94900000000000240027005E
:100070002A0000000000250028002B0000000000DE
:1000800023002600290004040404040404040202DA
:100090000202020203030303030301020408102007
:1000A0004080010204081020010204081020000012
:1000B0000007000201000003040600000000000029
:1000C00000000200FD044D05C30797123D13D91728
:1000D00011241FBECFEFD8E0DEBFCDBF13E0A0E0FC
:1000E000B1E0E4EBF7E302C005900D92AE35B10745
:1000F000D9F715E0AEE5B3E001C01D92AF36B10708
:10010000E1F710E0C0EDD0E004C02297FE010E94AC
:10011000D41BC43CD107C9F70E9456190C94940112
:100120000C940000CF93DF93BC018230910510F452
:1001300062E070E0A0916D05B0916E05ED01E0E028
:10014000F0E040E050E021C0888199818617970750
:1001500069F48A819B81309719F09383828304C06C
:1001600090936E0580936D05FE0134C06817790782
:1001700038F44115510519F08417950708F4AC01BE
:10018000FE018A819B819C01E9012097E9F64115D6
:100190005105A9F1CA01861B970B049708F4BA010F
:1001A000E0E0F0E02AC08D919C91119784179507AB
:1001B000F9F46417750781F412968D919C91139749
:1001C000309719F09383828304C090936E058093D7
:1001D0006D05FD0132964CC0CA01861B970BFD01CF
:1001E000E80FF91F6193719302978D939C9340C020
:1001F000FD01828193819C01D9011097A1F6809124
:100200006B0590916C05892B41F48091C20290910D
:10021000C30290936C0580936B054091C40250918A
:10022000C5024115510541F44DB75EB78091C0023A
:100230009091C102481B590B20916B0530916C05C0
:10024000CA01821B930B8617970780F0AB014E5FA4
:100250005F4F8417950750F0420F531F50936C0562
:1002600040936B05F9016193719302C0E0E0F0E007
:10027000CF01DF91CF910895CF93DF93009709F4D9
:1002800050C0EC0122971B821A82A0916D05B0919B
:100290006E05109709F140E050E0AC17BD0708F17A
:1002A000BB83AA83FE0121913191E20FF31FAE17A8
:1002B000BF0779F48D919C911197280F391F2E5FFC
:1002C0003F4F3983288312968D919C9113979B837E
:1002D0008A834115510571F4D0936E05C0936D0565
:1002E00020C012968D919C911397AD01009711F04B
:1002F000DC01D3CFFA01D383C28321913191E20F84
:10030000F31FCE17DF0769F488819981280F391F01
:100310002E5F3F4FFA01318320838A819B81938333
:100320008283DF91CF910895F8940C94D81BBF92EB
:10033000CF92DF92EF92FF920F931F937B018C017C
:10034000FB010995B82EC8010196F7010995C82E41
:10035000C8010296F7010995D82EC8010396F70146
:100360000995982F6B2D7C2D8D2D1F910F91FF904E
:10037000EF90DF90CF90BF900895BF92CF92DF9221
:10038000EF92FF920F931F93D52EC62EB72E7901B1
:100390008C01642FF9010995C80101966D2DF701B3
:1003A0000995C80102966C2DF7010995C8010396BD
:1003B0006B2DF70109951F910F91FF90EF90DF9042
:1003C000CF90BF9008951F920F920FB60F921124F5
:1003D0002F933F934F935F936F937F938F939F934D
:1003E000AF93BF93EF93FF9380915E0390915F0370
:1003F000892B29F0E0915E03F0915F030995FF914D
:10040000EF91BF91AF919F918F917F916F915F918C
:100410004F913F912F910F900FBE0F901F90189505
:100420001F920F920FB60F9211242F933F934F9369
:100430005F936F937F938F939F93AF93BF93EF934C
:10044000FF938091600390916103892B29F0E091E3
:100450006003F09161030995FF91EF91BF91AF9116
:100460009F918F917F916F915F914F913F912F91CC
:100470000F900FBE0F901F9018951F920F920FB6FE
:100480000F9211242F933F938F939F93AF93BF931A
:100490008091660390916703A0916803B09169030E
:1004A00030916A030196A11DB11D232F2D5F2D37B9
:1004B00020F02D570196A11DB11D20936A03809352
:1004C000660390936703A0936803B09369038091D8
:1004D000620390916303A0916403B0916503019658
:1004E000A11DB11D8093620390936303A0936403E5
:1004F000B0936503BF91AF919F918F913F912F91E1
:100500000F900FBE0F901F9018958FB7F894209101
:1005100066033091670340916803509169038FBF70
:10052000B901CA010895019739F0880F991F880F02
:10053000991F02970197F1F70895789484B5826026
:1005400084BD84B5816084BD85B5826085BD85B577
:10055000816085BDEEE6F0E0808181608083E1E826
:10056000F0E010828081826080838081816080835E
:10057000E0E8F0E0808181608083E1EBF0E0808161
:1005800084608083E0EBF0E0808181608083EAE733
:10059000F0E08081846080838081826080838081BC
:1005A000816080838081806880831092C10008957B
:1005B000482F50E0CA0186569F4FFC0124914A57AC
:1005C0005F4FFA0184918823C1F0E82FF0E0EE0F2D
:1005D000FF1FE859FF4FA591B491662341F49FB7DF
:1005E000F8948C91209582238C939FBF08959FB798
:1005F000F8948C91822B8C939FBF0895482F50E0E4
:10060000CA0182559F4FFC012491CA0186569F4F13
:10061000FC0194914A575F4FFA013491332309F456
:1006200040C0222351F1233071F0243028F42130CE
:10063000A1F0223011F514C02630B1F02730C1F0FE
:100640002430D9F404C0809180008F7703C080915A
:1006500080008F7D8093800010C084B58F7702C0AA
:1006600084B58F7D84BD09C08091B0008F7703C0B1
:100670008091B0008F7D8093B000E32FF0E0EE0F0B
:10068000FF1FEE58FF4FA591B4912FB7F894662342
:1006900021F48C919095892302C08C91892B8C93A5
:1006A0002FBF08951F920F920FB60F9211242F9310
:1006B0003F934F938F939F93EF93FF934091C60087
:1006C0002091AB033091AC032F5F3F4F2F733070FD
:1006D0008091AD039091AE032817390759F0E0914E
:1006E000AB03F091AC03E559FC4F40833093AC036E
:1006F0002093AB03FF91EF919F918F914F913F9189
:100700002F910F900FBE0F901F9018951F920F9270
:100710000FB60F9211242F933F934F935F936F93D4
:100720007F938F939F93AF93BF93EF93FF9320910A
:10073000EF033091F0038091F1039091F2032817B9
:10074000390731F48091C1008F7D8093C10016C0BC
:10075000E091F103F091F203E155FC4F408180916B
:10076000F1039091F203019660E470E00E949D1BFA
:100770009093F2038093F1034093C600FF91EF91B1
:10078000BF91AF919F918F917F916F915F914F91A9
:100790003F912F910F900FBE0F901F901895AF9221
:1007A000BF92DF92EF92FF920F931F93CF93DF934D
:1007B000EC017A018B01DD24403081EE580780E0A6
:1007C000680780E0780711F0DD24D39491E0A92E2A
:1007D000B12CEC89FD89DD2069F0C5010E8C02C0C9
:1007E000880F991F0A94E2F7808360E079E08DE337
:1007F00090E005C0108260E874E88EE190E0A80106
:1008000097010E94B01B2150304040405040569507
:1008100047953795279580E12030380720F0DD2077
:1008200011F0DD24D6CFE889F9893083EA89FB8984
:100830002083EE89FF89408121E030E0C9010A8CE4
:1008400002C0880F991F0A94E2F7482B4083EE8973
:10085000FF894081C9010B8C02C0880F991F0A943F
:10086000E2F7482B4083EE89FF894081C9010C8C57
:1008700002C0880F991F0A94E2F7482B4083EE8943
:10088000FF8980810D8C02C0220F331F0A94E2F78A
:10089000209528232083DF91CF911F910F91FF9006
:1008A000EF90DF90BF90AF900895DC011C96ED9122
:1008B000FC911D97E05CFF4F2191319180819181E6
:1008C000281B390B2F733070C9010895DC011C9669
:1008D000ED91FC911D97E05CFF4F20813181E05448
:1008E000F040DF01AE5BBF4F8D919C9111972817AF
:1008F000390719F42FEF3FEF07C08D919C91E80F56
:10090000F91F8081282F30E0C9010895DC011C9671
:10091000ED91FC911D97E05CFF4F20813181E05407
:10092000F040DF01AE5BBF4F8D919C91119728176E
:10093000390719F42FEF3FEF10C08D919C9111975B
:10094000E80FF91F20818D919C91119701968F736B
:10095000907011969C938E9330E0C9010895FC012C
:1009600086859785DC01A05CBF4FFC01EE5BFF4FE5
:100970002D913C9111978081918128173907C1F7FA
:100980000895CF93DF93EC01462FEE85FF85E05C61
:10099000FF4F80819181E054F040019660E470E067
:1009A0000E949D1B9C01DF01AE5BBF4F8D919C910E
:1009B000119728173907D1F3E05CFF4F80819181AF
:1009C000E054F040E80FF91F4083EE85FF85E05CBE
:1009D000FF4F31832083EE89FF89208181E090E001
:1009E0000D8C02C0880F991F0A94E2F7282B2083F0
:1009F00081E090E0DF91CF9108951092F60310927C
:100A0000F50388EE93E0A0E0B0E08093F7039093C5
:100A1000F803A093F903B093FA038FEC92E090935C
:100A2000F4038093F3038BE693E0909300048093A8
:100A3000FF038FEA93E0909302048093010485EC16
:100A400090E0909304048093030484EC90E09093EE
:100A500006048093050480EC90E090930804809352
:100A6000070481EC90E090930A048093090486ECDB
:100A700090E090930C0480930B0484E080930D0429
:100A800083E080930E0487E080930F0485E08093D9
:100A9000100481E08093110408958FED92E090930B
:100AA00013048093120410921404109215041092EF
:100AB00016041092170408958F929F92AF92BF92DE
:100AC000CF92DF92EF92FF920F931F93CF93DF931A
:100AD0004C016B017C01AA24BB24C0E0D0E0C6011C
:100AE000F70162814AE050E00E9477068C01C6015E
:100AF0006EE20E94C805080F191FA00EB11E2196B4
:100B00000894E11CF11CC330D10549F7C601F4017A
:100B100065814AE050E00E9477069501280F391F51
:100B2000C901DF91CF911F910F91FF90EF90DF905E
:100B3000CF90BF90AF909F908F900895CF92DF920B
:100B4000EF92FF920F931F93CF93DF937C016B0182
:100B50008A01C0E0D0E00FC0D6016D916D01D701D0
:100B6000ED91FC910190F081E02DC7010995C80F2E
:100B7000D91F015010400115110571F7CE01DF9109
:100B8000CF911F910F91FF90EF90DF90CF9008953C
:100B9000DC01ED91FC910190F081E02D0995089523
:100BA000EF92FF920F931F938C01DC01ED91FC916A
:100BB0000190F081E02D6DE009957C01D801ED9167
:100BC000FC910190F081E02DC8016AE009959C013B
:100BD0002E0D3F1DC9011F910F91FF90EF900895B9
:100BE000CF93DF93DB010D900020E9F71197A61B4F
:100BF000B70BEC01E881F9810280F381E02DAD01B2
:100C00000995DF91CF9108954F925F927F928F92D5
:100C10009F92AF92BF92CF92DF92EF92FF920F938B
:100C20001F93DF93CF93CDB7DEB7A1970FB6F8949C
:100C3000DEBF0FBECDBF2C01742ECB01223008F4D5
:100C40002AE019A231E2C32ED12CCC0EDD1E822E59
:100C50009924AA24BB24672D752FA50194010E9415
:100C6000B01B79018A01C801B701A50194010E9456
:100C70005E1B472D461B0894C108D1084A3014F466
:100C8000405D01C0495CF6014083E114F1040105B7
:100C9000110521F07E2C5F2DC801DDCFC201B60108
:100CA0000E94F005A1960FB6F894DEBF0FBECDBF2F
:100CB000CF91DF911F910F91FF90EF90DF90CF9038
:100CC000BF90AF909F908F907F905F904F900895CE
:100CD000DC012115310541F4ED91FC910190F08189
:100CE000E02D642F099508950E9404060895EF925F
:100CF000FF920F931F939A01E62EFF2400E010E06D
:100D0000B801A7010E9468061F910F91FF90EF9014
:100D10000895CF92DF92EF92FF920F931F93CF939C
:100D2000DF93EC016A017B012115310541F4E88173
:100D3000F9810190F081E02D642F09951FC02A30C0
:100D40003105D1F477FF17C0E881F9810190F08176
:100D5000E02D6DE209958C0144275527BA014C1905
:100D60005D096E097F09CE012AE00E940406980100
:100D7000280F391F04C02AE00E9404069C01C90103
:100D8000DF91CF911F910F91FF90EF90DF90CF9067
:100D90000895EF92FF920F931F937B019A01002712
:100DA000F7FC0095102FB801A7010E9489061F913A
:100DB0000F91FF90EF9008950E94F0050895EF9233
:100DC000FF920F931F937C010E94F0058C01C701D5
:100DD0000E94D005080F191FC8011F910F91FF90A5
:100DE000EF900895813041F0813018F08230D1F4D5
:100DF00009C010926E00089580916F008D7F8093DE
:100E00006F000895809170008D7F8093700081E065
:100E10008093B0008091B100887F84608093B1009E
:100E20001092B30008951F93182F8091C602811766
:100E300011F09FEF06C0E2ECF0E094918FEF809309
:100E4000C602892F0E94F206812F60E00E94FE02F6
:100E50001F9108951F920F920FB60F9211242F9396
:100E60003F934F935F936F937F938F939F93AF9332
:100E7000BF93EF93FF938091180490911904A09170
:100E80001A04B0911B040097A105B10551F1E0913E
:100E90001C04F0911D04808190911E048927808399
:100EA0008091180490911904A0911A04B0911B0428
:100EB000181619061A061B06C4F48091180490919E
:100EC0001904A0911A04B0911B040197A109B1095A
:100ED0008093180490931904A0931A04B0931B04F0
:100EE00004C08091C6020E941307FF91EF91BF9149
:100EF000AF919F918F917F916F915F914F913F91B2
:100F00002F910F900FBE0F901F9018950E94920086
:100F1000089581E080936404609341041092620418
:100F20001092630408952091400430E080913F04C2
:100F3000281B3109C901089540913F048091400464
:100F4000481718F02FEF3FEF0AC0E42FF0E0E15E02
:100F5000FB4F8081282F30E04F5F40933F04C90151
:100F60000895E0913F0480914004E81718F0EFEFF6
:100F7000FFEF06C0F0E0E15EFB4F8081E82FF0E07C
:100F8000CF0108950895109268041092670488EEC6
:100F900093E0A0E0B0E08093690490936A04A0938A
:100FA0006B04B0936C0485EE92E09093660480939A
:100FB00065040895CF92DF92EF92FF920F931F93F3
:100FC000CF93DF937C016B018A01809164048823B5
:100FD000A1F0C0E0D0E00DC0D701ED91FC91D601A9
:100FE000AC0FBD1F0190F081E02DC7016C910995F8
:100FF0002196C017D10780F304C0CB01642F0E9453
:10100000F308C801DF91CF911F910F91FF90EF90EE
:10101000DF90CF900895DF93CF930F92CDB7DEB7D7
:10102000FC016983809164048823C9F08091630482
:10103000803238F081E090E09383828320E030E0DA
:1010400015C080916204E82FF0E0EE5BFB4F9981C0
:1010500090838F5F809362048093630405C0CE0108
:10106000019661E00E94F30821E030E0C9010F9091
:10107000CF91DF9108958091410462E474E0409142
:10108000630421E00E94B00810926204109263048D
:10109000109264040895413208F040E2862F6FE117
:1010A00074E00E94790810923F04809340040895F0
:1010B0000E944B08089510923F0410924004109231
:1010C0006204109263040E94890A0895F999FECF80
:1010D00072BD61BDF89A80B50895F999FECF1FBA27
:1010E00072BD61BD40BD0FB6F894FA9AF99A0FBE71
:1010F0000895982F413210F040E030C08091720482
:101100008823E1F781E0809372048FEF8093DD0400
:10111000109298044150409399044F5F990F916049
:101120009093730485EE8093BC00809172048130AB
:10113000E1F380919804841710F44091980420E022
:1011400030E00AC0FB01E20FF31FD901A858BB4FE2
:101150008C9180832F5F3F4F2417A0F3842F089535
:101160001F93582F122F413210F081E03AC0809126
:1011700072048823E1F782E0809372048FEF8093FA
:10118000DD041092980440939904A8E7B4E0FB01B1
:1011900002C081918D938E2F861B8417D0F3852FEB
:1011A00090E0880F991F8093730485EE8093BC00B4
:1011B000112321F0809172048230E1F38091DD04EB
:1011C0008F3F11F480E00DC08091DD04803211F476
:1011D00082E007C08091DD04803311F084E001C01B
:1011E00083E01F910895482F613210F081E0089547
:1011F00080917204843011F082E008956093BB0402
:10120000AAE9B4E0842F9C01F90102C081918D9379
:101210008E2F841B8617D0F380E008951F920F92C3
:101220000FB60F9211242F933F934F935F936F93B9
:101230007F938F939F93AF93BF93EF93FF9380918F
:10124000B90090E0887F90708036910509F4DCC089
:1012500081369105CCF58832910509F47BC089323D
:101260009105B4F48031910509F46FC08131910585
:101270003CF4009709F431C1089709F039C165C001
:101280008831910509F466C0809709F031C17DC0AD
:101290008034910509F49FC08134910544F4803372
:1012A000910509F47DC0C89709F022C184C080353A
:1012B000910509F484C08835910509F491C08834FA
:1012C000910509F015C198C08839910509F4FDC050
:1012D00089399105ECF48837910509F495C089376F
:1012E00091054CF48836910509F48EC0803791053C
:1012F00009F0FEC089C08838910509F4E6C080393C
:10130000910509F487C08038910509F0F1C082C0C9
:10131000803B910509F4B0C0813B91054CF4803AC3
:10132000910509F489C0883A910509F0E1C0A4C08B
:10133000803C910509F4CDC0883C910509F4C9C0F1
:10134000883B910509F0D4C0ACC0809173048093B0
:10135000BB00B9C09091980480919904981768F4E3
:1013600090919804E92FF0E0E858FB4F808180933A
:10137000BB009F5F90939804A6C085ED8093BC004E
:101380008091BC0084FDFCCFB1C080E28093DD047D
:1013900085ED8093BC008091BC0084FDFCCFA6C08D
:1013A00080E38093DD0485ED8093BC008091BC00D8
:1013B00084FDFCCF9BC088E38093DD048AC08091CC
:1013C00098049091BB00E82FF0E0E858FB4F908321
:1013D0008F5F80939804909198048091990471C0D4
:1013E000809198049091BB00E82FF0E0E858FB4F03
:1013F00090838F5F8093980485ED8093BC008091EB
:10140000BC0084FDFCCF72C083E080937204109214
:10141000DC0459C08091DC04803208F056C0809111
:10142000DC049091BB00E82FF0E0E454FB4F908384
:101430008F5F8093DC0447C08091DC04803230F4FD
:10144000E091DC04F0E0E454FB4F108285ED8093E2
:10145000BC008091BC0084FDFCCF109272046091AE
:10146000DC04E0917604F09177048CEB94E070E07A
:1014700009951092DC042DC084E0809372041092D0
:10148000BA041092BB04E0917404F09175040995BC
:101490008091BB04882329F481E08093BB041092DF
:1014A0009A049091BA04E92FF0E0E656FB4F808150
:1014B0008093BB009F5F9093BA049091BA0480918F
:1014C000BB04981710F485EC01C085E88093BC003C
:1014D0000FC085EC8093BC0009C01092DD0485ED3F
:1014E0008093BC008091BC0084FDFCCF10927204FC
:1014F000FF91EF91BF91AF919F918F917F916F91EC
:101500005F914F913F912F910F900FBE0F901F90C1
:1015100018951092720482E161E00E94FE0283E15C
:1015200061E00E94FE02E9EBF0E080818E7F808323
:1015300080818D7F808388E48093B80085E48093E8
:10154000BC000895682F85E694E00E940B0808957A
:10155000EF92FF920F931F93FC01F62EE72E05E604
:1015600014E060816062C80170E00E94890782E136
:101570000E94A20A8F2D0E94A20A8E2D0E94A20A0A
:10158000C8010E943B081F910F91FF90EF900895B2
:101590000F931F93CF93DF93EC01162F603110F060
:1015A00080E028C0683010F402E102C0185003E166
:1015B0006881606285E694E070E00E948907802F70
:1015C0000E94A20A85E694E00E943B08688160625E
:1015D00085E694E070E041E050E00E94580885E61E
:1015E00094E00E949C0790E002C0959587951A951B
:1015F000E2F78170DF91CF911F910F910895FF92D3
:101600000F931F93CF93DF93EC01162FF42E6031CD
:1016100008F04AC0683010F40CE002C018500DE029
:101620006881606285E694E070E00E948907802FFF
:101630000E94A20A85E694E00E943B0868816062ED
:1016400085E694E070E041E050E00E94580885E6AD
:1016500094E00E949C07282F81E0F81651F481E065
:1016600090E002C0880F991F1A95E2F7122F182BED
:101670000AC081E090E002C0880F991F1A95E2F736
:10168000182F109512236881606285E694E070E05F
:101690000E948907802F0E94A20A812F0E94A20A1D
:1016A00085E694E00E943B08DF91CF911F910F9156
:1016B000FF900895EF92FF920F931F93CF93DF93C4
:1016C000EC01162FE42E603108F04EC0683020F493
:1016D00092E1F92E04E104C0185083E1F82E05E1EF
:1016E0006881606285E694E070E00E948907802F3F
:1016F0000E94A20A85E694E00E943B08688160622D
:1017000085E694E070E041E050E00E94580885E6EC
:1017100094E00E949C07282F81E0E81651F481E0B4
:1017200090E002C0880F991F1A95E2F7122F182B2C
:101730000AC081E090E002C0880F991F1A95E2F775
:10174000182F109512236881606285E694E070E09E
:101750000E9489078F2D0E94A20A812F0E94A20A4F
:1017600085E694E00E943B08DF91CF911F910F9195
:10177000FF90EF900895EF92FF920F931F938C01CB
:1017800025E6E22E24E0F22EFC0160816062C701B2
:1017900070E00E94890782E10E94A20AC7010E94AC
:1017A0003B08F80160816062C70170E042E050E0F0
:1017B0000E945808C7010E949C07082FC7010E9479
:1017C0009C07382F20E010E0022B132BC8011F913B
:1017D0000F91FF90EF900895FF920F931F93CF9377
:1017E000DF93EC01162FF42E603108F049C0683009
:1017F00010F400E002C0185001E06881606285E6E4
:1018000094E070E00E948907802F0E94A20A85E67A
:1018100094E00E943B086881606285E694E070E095
:1018200041E050E00E94580885E694E00E949C0741
:10183000282FFF2051F481E090E002C0880F991F0B
:101840001A95E2F7122F182B0AC081E090E002C02F
:10185000880F991F1A95E2F7182F109512236881A7
:10186000606285E694E070E00E948907802F0E9404
:10187000A20A812F0E94A20A85E694E00E943B08FA
:10188000DF91CF911F910F91FF900895CF93DF9338
:10189000EC01683008F067E0688385E694E00E9418
:1018A0005B086881606285E694E070E00E948907C9
:1018B00080E00E94A20A8FEF0E94A20A85E694E0CF
:1018C0000E943B086881606285E694E070E00E94B7
:1018D000890781E00E94A20A8FEF0E94A20A85E692
:1018E00094E00E943B08DF91CF91089560E00E9450
:1018F000460C0895FC011382128285EF92E09183D9
:101900008083138E148A8FE084838EE085838DE03C
:1019100086838CE087838BE080878AE0818789E0FB
:101920008287178681E0808B82E0818B83E0828BC7
:1019300084E0838B0895CF92DF92FF920F931F93E1
:10194000CF93DF932CE1C22ED12CC80ED91E8C016F
:101950008FE1F82EC0E0D0E0C601F80167850E9453
:10196000C80A90E00C2E02C0880F991F0A94E2F773
:101970008095F82221960F5F1F4FC530D10561F782
:101980008F2DDF91CF911F910F91FF90DF90CF901E
:101990000895FC01838D8F3F29F0CF014C960E9462
:1019A000EC0B0895862F642F0E94D8020895CF92E1
:1019B000DF92EF92FF920F931F93062FECE1CE2E52
:1019C000D12CC80ED91E10E0A80156954795569502
:1019D000479561E0E62EF12C4E255F254170C6014A
:1019E00068E00E945A0BA801569547954E255F2541
:1019F0004170C60167E00E945A0B0E251F25017039
:101A0000C60166E0402F0E945A0B1F910F91FF9074
:101A1000EF90DF90CF900895FC01838D8F3F29F0E8
:101A2000CF014C960E945A0B0895862F642F0E9476
:101A3000FE0208950F931F938C01F801668140E028
:101A40000E940C0D81E090E00E949302C801F80111
:101A5000668141E00E940C0D81E090E00E949302BB
:101A6000C801F801668140E00E940C0D84E690E018
:101A70000E9493021F910F910895CF92DF92EF92EF
:101A8000FF920F931F93CF93DF93F82EE92E282F09
:101A9000392FC9018C01C0E0D0E0C62EDD248F2D86
:101AA0009E2DF801678141E00E94C90CA6010C2E11
:101AB00002C0559547950A94E2F741708F2D9E2DEF
:101AC000F80167810E940C0D21960F5F1F4FC830EF
:101AD000D10529F78F2D9E2D0E941A0DDF91CF91F0
:101AE0001F910F91FF90EF90DF90CF900895AF92EC
:101AF000BF92CF92DF92EF92FF920F931F93CF93FB
:101B0000DF936C01E62EFC01838D8F3F09F46FC0DB
:101B1000FCE1AF2EB12CAC0CBD1CC5010E94BB0B6F
:101B2000AC01D601E0E0F0E001E010E06E2D70E0E5
:101B300017962C911797C1E0D0E0C801022E02C081
:101B4000880F991F0A94E2F7809590958423952336
:101B5000AB010E2E02C0559547950A94E2F74170ED
:101B6000507002C0440F551F2A95E2F7482B592B9D
:101B700031961196E430F105D9F68E01F601068012
:101B800002C0000F111F0A94E2F70095109504237C
:101B90001523C501B8010E94A80A81E090E00E94C7
:101BA00093027E01F601068002C0EE0CFF1C0A942F
:101BB000E2F7E02AF12AC501B7010E94A80A81E0F4
:101BC00090E00E949302F601068002C0CC0FDD1F58
:101BD0000A94E2F7C095D095EC22FD22C501B70129
:101BE0000E94A80A84E690E00E94930221C0860128
:101BF000C0E0D0E0A62EBB24C601F801678141E019
:101C00000E94C90CA5010C2E02C0559547950A9457
:101C1000E2F74170C601F80167810E940C0D219620
:101C20000F5F1F4FC430D10539F7C6010E941A0D4E
:101C3000DF91CF911F910F91FF90EF90DF90CF90A8
:101C4000BF90AF9008951F93CF93DF93EC01162FB1
:101C50006C810E940C0D6D816F3F21F0CE0140E040
:101C60000E940C0D8C8984FF05C0CE01612F0E945B
:101C70003D0D0EC0612F70E0A4E075956795AA95A3
:101C8000E1F7CE010E94770DCE01612F0E94770D02
:101C9000DF91CF911F91089541E00E94230E81E0D2
:101CA00090E0089540E00E94230E0895FC016589AC
:101CB000862F8160858B6960CF010E94520E089546
:101CC000FC0165896E7F658B68600E94520E0895E5
:101CD000FC016589862F8460858B6C60CF010E9432
:101CE000520E0895DF93CF93CDB7DEB728970FB686
:101CF000F894DEBF0FBECDBF9C01FE013196A9EF67
:101D0000B2E088E00D9001928150E1F7F901808DF9
:101D1000841710F4482F4150E42FF0E0EE0FFF1F1E
:101D2000EC0FFD1F8181680F6068C9010E94520E8F
:101D300028960FB6F894DEBF0FBECDBFCF91DF91CE
:101D4000089561E00E94520E80ED97E00E94930298
:101D500008958F929F92AF92BF92CF92DF92EF92AF
:101D6000FF920F931F93CF93DF93EC01962EA42E37
:101D7000822E8B8D8F3F09F452C085E694E00E943D
:101D80005B081CE1E12EF12CEC0EFD1EC7010E9448
:101D9000760CC70168E041E00E94EC0BC70166E0E9
:101DA00041E00E94EC0BC70167E041E00E94EC0BB0
:101DB000CE0167E00E94D70C6D81662321F0C70138
:101DC00041E00E94EC0BC7016C8141E00E94EC0BEA
:101DD000C7016E8141E00E94EC0B6E018E01BB24B5
:101DE000C701F801678141E00E94EC0BB3940F5FDB
:101DF0001F4FF4E0BF16A1F710E0C701F601678599
:101E000040E00E94EC0BC701F601678541E00E94AB
:101E1000FF0A1F5F0894C11CD11C153071F7F1E057
:101E2000FA1518F48C8988608C8BA88E9A8E198E7E
:101E3000882031F081E0A81619F48C8984608C8B9D
:101E400080E593EC0E949302CE016C8140E00E94F9
:101E50000C0DCE016E8140E00E940C0D6D816F3F34
:101E600021F0CE0140E00E940C0D6C8964FD1DC084
:101E7000CE0163E00E94770D84E991E10E94930214
:101E8000CE0163E00E94770D84E991E10E94930204
:101E9000CE0163E00E94770D86E990E00E949302F4
:101EA000CE0162E00E94770D16C06062CE010E94F2
:101EB000520E84E991E10E9493026C896062CE0126
:101EC0000E94520E86E990E00E9493026C89606243
:101ED000CE010E94520E6C896062CE010E94520EA9
:101EE00084E08D8BCE010E94680ECE010E94A10E6F
:101EF00082E08E8BCE0166E00E94520EDF91CF9180
:101F00001F910F91FF90EF90DF90CF90BF90AF9017
:101F10009F908F9008958F929F92AF92BF92CF9291
:101F2000DF92EF92FF920F931F93CF93DF937B018A
:101F30008C01EA012CE330E040E050E00E94B01B4D
:101F40006883C801B7012CE330E040E050E00E9414
:101F5000B01B122F032FF42EE52E622F732F842F28
:101F6000952F2CE330E040E050E00E94B01B6983E5
:101F7000612F702F8F2D9E2D2CE330E040E050E03C
:101F80000E94B01B122F032FF42EE52E622F732F09
:101F9000842F952F28E130E040E050E00E94B01BF4
:101FA0006A83612F702F8F2D9E2D28E130E040E055
:101FB00050E00E94B01B79018A01C801B7016C5F33
:101FC0007F4F8F4F9F4F27E030E040E050E00E946E
:101FD000B01B6F5F6B8320E0AA24BB24650101C0A6
:101FE0002F5F822E9924F401EE54F84FCF018370B5
:101FF0009070892B99F4CF0164E670E00E949D1BDC
:10200000892B39F4CF0160E971E00E949D1B892B77
:1020100029F48EE691E0A0E0B0E004C08DE691E006
:10202000A0E0B0E0A80EB91ECA1EDB1EC501A0E0EC
:10203000B0E0E816F9060A071B0790F62E83F401B4
:10204000EE54F84F83E0882E912C8E229F2281142B
:10205000910499F4CF0164E670E00E949D1B892BE6
:1020600039F4CF0160E971E00E949D1B892B29F4AE
:102070008EE691E0A0E0B0E004C08DE691E0A0E043
:10208000B0E0A81AB90ACA0ADB0A980187010A193E
:102090001B092C093D09CF0164E670E00E949D1BDD
:1020A0007C01CF0160E971E00E949D1BAC01E1E081
:1020B000F3E060E0613051F48114910449F4E114DB
:1020C000F10441F44115510529F002C0808103C09B
:1020D0008CE101C08DE190E0A0E0B0E008171907A5
:1020E0002A073B0740F0081B190B2A0B3B0B6F5FBD
:1020F00031966C30F9F66F5F6D83802F8F5F8C8324
:10210000DF91CF911F910F91FF90EF90DF90CF90D3
:10211000BF90AF909F908F900895EF92FF920F9392
:102120001F937B018C018091F5049091F604A0919E
:10213000F704B091F804E816F9060A071B0771F0D6
:10214000C801B7014AEE54E00E948B0FE092F504FB
:10215000F092F6040093F7041093F8041F910F9186
:10216000FF90EF9008950E948D108091EB0490E015
:1021700008950E948D108091EC0490E008954F9294
:102180005F926F927F928F929F92AF92BF92CF9207
:10219000DF92EF92FF920F931F93CF93DF934C0147
:1021A000DC0116961C91612F70E080E090E020E841
:1021B00033E341EE51E00E945E1B5B016C0122EBB8
:1021C00037E0E12FF0E0EE54F84F1DC0C9018370F5
:1021D0009070892BB1F4C90164E670E00E949D1BE8
:1021E000892B39F4C90160E971E00E949D1B892B9C
:1021F00041F480E891E5A1E0B0E0A80EB91ECA1E46
:10220000DB1E2F5F3F4F2E173F0701F7D4011596B6
:102210008C91482E5524C90164E670E00E949D1BF4
:102220007C01C90160E971E00E949D1B8C01C1E045
:10223000D0E093E0692E712C6222732227C0C23055
:10224000D10591F46114710479F4E114F10419F4E5
:102250000115110549F480E89BE3A6E2B0E0A80E61
:10226000B91ECA1EDB1E11C0FE01E050FD4F608189
:1022700070E080E090E020E831E541E050E00E942D
:102280005E1BA60EB71EC81ED91E2196C415D50505
:10229000B4F2D40112966C9170E080E090E020E1FD
:1022A0003EE040E050E00E945E1B7B018C01F401A7
:1022B000618170E080E090E02CE330E040E050E0AD
:1022C0000E945E1BE60EF71E081F191FD4018C9199
:1022D000E80EF11C011D111D14966C9170E0615007
:1022E0007040882777FD8095982F20E831E541E000
:1022F00050E00E945E1BE60EF71E081F191FEA0C35
:10230000FB1C0C1D1D1DB701C801DF91CF911F9152
:102310000F91FF90EF90DF90CF90BF90AF909F9084
:102320008F907F906F905F904F9008958091E80418
:102330009091E90408956093E0047093E104809320
:10234000E2049093E3042091C7023091C8024091C7
:10235000C9025091CA02260F371F481F591F2093E8
:10236000E4043093E5044093E6045093E70482E0EC
:1023700090E09093E9048093E8040E9485026093C2
:10238000F1047093F2048093F3049093F40408959D
:10239000EF92FF920F931F931CC02F5F3F4F4F4F41
:1023A0005F4F2093E0043093E1044093E2045093A4
:1023B000E30488EE93E0A0E0B0E0E80EF91E0A1F07
:1023C0001B1FE092F104F092F2040093F3041093C7
:1023D000F4040E948502E090F104F090F204009170
:1023E000F3041091F4046E197F09800B910B209176
:1023F000E0043091E1044091E2045091E304685E0E
:1024000073408040904048F68091E4049091E50448
:10241000A091E604B091E704281739074A075B0743
:10242000E8F0E091DE04F091DF043097B9F009950F
:10243000611571058105910519F00E949B110EC06F
:1024400020E030E08091E8049091E904892B11F0BC
:1024500021E030E03093E9042093E8046091E00447
:102460007091E1048091E2049091E3041F910F9137
:10247000FF90EF9008959093DF048093DE048091A5
:10248000E0049091E104A091E204B091E304809310
:10249000E4049093E504A093E604B093E7040E945B
:1024A000C8110895CF93DF93DC01FC0120E030E0F8
:1024B0008285807C8287168217821086118612821E
:1024C00013821482158211821082255F3F4F3B9642
:1024D0002234310569F7AE5BBF4F1C92A254B04065
:1024E000ED0120E030E04BE050E0249FF001259F1B
:1024F000F00D349FF00D1124EA0FFB1F9285892FF8
:102500008F7061F0907E9287198218821A821B82E6
:102510001C821D821E821F82188619862F5F3F4FE4
:102520002B962630310509F7DF91CF91089589EF79
:1025300094E00E9452120895DF92EF92FF920F935F
:102540001F937C0105E614E0C80168E670E00E9474
:102550008907C80160E00E940B08C8010E943B087F
:10256000C80168E670E047E050E00E945808C801E2
:102570000E949C07282F2F7722952F709AE0D92E42
:102580002D9D900111248F70820FF7018083C80167
:102590000E949C07282F22952F702D9D90011124B9
:1025A0008F70820FF7018183C8010E949C07282F3A
:1025B0002F7322952F702D9D900111248F70820F03
:1025C000F7018283C8010E949C07282F22952F7053
:1025D0002D9D900111248F70820FF7018383C80114
:1025E0000E949C07282F22952F702D9D9001112469
:1025F0008F70820FF7018483C8010E949C07282FE7
:1026000022952F702D9D900111248F70820FF7015C
:102610008583C8010E949C07282F2F70225E829517
:102620008F708D9DC0011124280FF70126831F9103
:102630000F91FF90EF90DF9008950F931F93DF931A
:10264000CF93CDB7DEB727970FB6F894DEBF0FBE96
:10265000CDBF8E010F5F1F4FC8010E949C12C801A1
:102660000E94BF1027960FB6F894DEBF0FBECDBFF5
:10267000CF91DF911F910F91089585E694E00E941C
:102680005B08089581E0089580E00895FC0189E3E6
:1026900093E091838083738362831386128611860D
:1026A0001086178216821582148214860895CF939D
:1026B000DF93FC01DB01C285D385209739F41596A1
:1026C0009C938E9314977387628713C0FE01808555
:1026D0009185009711F0FC01FACFB187A08717967A
:1026E000FC93EE9316978C819D8115969C938E9307
:1026F0001497DF91CF910895FC0173836283138651
:10270000128611861086178216821582148214860C
:1027100087E293E09183808356874587308B2787B4
:1027200008950F931F93FC017383628313861286AF
:10273000118610861782168215821482148681E112
:1027400093E091838083568745870787108B218B81
:10275000328B138A1F910F910895EF92FF921F936E
:10276000CF93DF93EC017B018B89882311F1182F24
:102770001F5F1B8BE881F9810684F785E02DCE0170
:102780000995882319F423E030E002C024E030E00A
:10279000812F90E02817390714F481E08B8BE881B2
:1027A000F981D7016D917C910088F189E02DCE01EE
:1027B0000995DF91CF911F91FF90EF9008950F93AE
:1027C0001F93CF93DF93EC018B018B89882319F43E
:1027D00081E08B8B05C01B8AED85FE85CE010995B6
:1027E000E881F981D8016D917C910088F189E02D13
:1027F000CE010995DF91CF911F910F9108950F930D
:102800001F93FC01738362831386128611861086E0
:102810001782168215821482148656874587078789
:10282000108B218B328B138A8BE493E0918380830E
:102830001F910F91089508951F93CF93DF93EC019B
:10284000888199810E949B0C182F882309F449C024
:102850008C819D81892B09F444C083EF93E060E073
:1028600071E00E94DF0613FF07C0EC81FD81A081AB
:10287000B1812D913C912BC012FF09C0EC81FD81EB
:10288000A081B18112962D913C91139720C014FF25
:1028900009C0EC81FD81A081B18114962D913C91FC
:1028A000159715C011FF09C0EC81FD81A081B18190
:1028B00016962D913C9117970AC010FF0CC0EC8121
:1028C000FD81A081B18118962D913C911997CF017E
:1028D000BE01F9010995888199810E949B0C88238A
:1028E000D1F7DF91CF911F9108950F931F93CF934D
:1028F000DF93EC018B018C8580FF05C0CB016FE07D
:1029000071E00E94DC066A817B81C8010E94DC06BE
:10291000DF91CF911F910F910895CF93DF93EC0139
:102920008C819D81892BC1F183EF93E061E171E09E
:102930000E94DC06EC81FD816281738183EF93E06C
:102940000E94DF0688819981009709F10E94A10EFB
:102950008881998160E040E00E94720EAC81BD8167
:10296000ED91FC911197688179810284F385E02DC6
:10297000CD010995AC81BD81ED91FC9111976881E4
:1029800079810484F585E02DCD0109950BC083EF95
:1029900093E060E271E004C083EF93E06FE271E0E6
:1029A0000E94DF06DF91CF910895CF93DF93EC0172
:1029B00083EF93E060E571E00E94DF06EC81FD812A
:1029C00082859385009729F09D838C83CE010E9498
:1029D0008D14DF91CF910895CB010E94D5140895F5
:1029E000DC011D96ED91FC911E97309711F0099531
:1029F0000895CB010E94D5140895CB010E94D514EF
:102A00000895CF93DF93EC0183EF93E061E671E0EB
:102A10000E94DF06EC81FD8184819581009729F079
:102A20009D838C83CE010E948D14DF91CF910895F8
:102A30000F931F93CF93DF93EC018B018B89882336
:102A4000E1F081508B8B882369F4E881F981068459
:102A5000F785E02DCE010995882311F483E001C0AC
:102A600084E08B8BE881F981D8016D917C9100889D
:102A7000F189E02DCE01099503C0CB010E9401151B
:102A8000DF91CF911F910F910895CB010E94011505
:102A90000895CF93DF93EC0183EF93E06DE671E04F
:102AA0000E94DF06EC81FD8180859185009729F0E9
:102AB0009D838C83CE010E948D14DF91CF91089568
:102AC000CB010E9449150895CF93DF93EC0183EF6A
:102AD00093E067E771E00E94DF06EC81FD8186816B
:102AE0009781009729F09D838C83CE010E948D14DD
:102AF000DF91CF910895CB010E9464150895FC01E8
:102B00007183608353834283558344830E948D1471
:102B100008950F931F93CF93DF938C01EB01CB01AB
:102B200060E041E00E94720EF80186819781208565
:102B30003185892BC1F082859385232B51F0892B18
:102B400021F0CE0162E871E01CC0CE0163E971E0C2
:102B500018C0892B21F0CE0164EA71E012C0CE01C9
:102B600065EB71E00EC0232B71F0F801828593852F
:102B7000892B21F0CE0166EC71E003C0CE0167ED38
:102B800071E00E94DC06DF91CF911F910F910895B3
:102B90008F929F92AF92BF92CF92DF92EF92FF926D
:102BA0000F931F93DF93CF93CDB7DEB727970FB661
:102BB000F894DEBF0FBECDBF5C014B01DC011F9658
:102BC0006D917D918D919C915297AE014F5F5F4FBA
:102BD0000E948B0FF5018389813039F48B8182301B
:102BE00010F0815050C08CE04EC0823061F48A8178
:102BF00090E09C012A50304037FF03C09C012E5CBE
:102C00003F4F2A8341C08330D1F52A81822F6AE069
:102C10000E947D1BC92EDD240894C108D108FFEF56
:102C2000CF16FFEFDF0619F489E0C82ED12C822FD2
:102C30006AE00E947D1B90E0AA2797FDA095BA2F1D
:102C4000BC01CD010E941A1A0E94551A20E030E002
:102C500040E251E40E94FB1A7B018C01B6018827F7
:102C600077FD8095982F0E941A1A9B01AC01C8012C
:102C7000B7010E9488190E94EC196A8305C084304C
:102C800019F48B81845F8B83CE0101960E94BF1063
:102C9000D5011F966D937D938D939C935297ED91E3
:102CA000FC91D4016D917C910484F585E02DC501E2
:102CB0000995D501ED91FC91D4016D917C9100882D
:102CC000F189E02DC501099527960FB6F894DEBF6E
:102CD0000FBECDBFCF91DF911F910F91FF90EF906D
:102CE000DF90CF90BF90AF909F908F9008958F927C
:102CF0009F92AF92BF92CF92DF92EF92FF920F938B
:102D00001F93DF93CF93CDB7DEB727970FB6F89415
:102D1000DEBF0FBECDBF5C014B01DC011F966D9184
:102D20007D918D919C915297AE014F5F5F4F0E94B4
:102D30008B0FF5019389913041F48B818F5F8B83E9
:102D40008D3008F44DC09B834BC0923051F49A8172
:102D5000892F865F8A838C3308F442C092539A830A
:102D60003FC09330C1F52A81822F6AE00E947D1B0B
:102D7000C92EDD240894C11CD11CFAE0CF16D10461
:102D800014F0CC24DD24822F6AE00E947D1B90E0A9
:102D9000AA2797FDA095BA2FBC01CD010E941A1A4F
:102DA0000E94551A20E030E040E251E40E94FB1AF4
:102DB0007B018C01B601882777FD8095982F0E94B2
:102DC0001A1A9B01AC01C801B7010E9488190E9420
:102DD000EC196A8305C0943019F48B81845F8B836E
:102DE000CE0101960E94BF10D5011F966D937D9371
:102DF0008D939C935297ED91FC91D4016D917C91B0
:102E00000484F585E02DC5010995D501ED91FC916E
:102E1000D4016D917C910088F189E02DC50109955F
:102E200027960FB6F894DEBF0FBECDBFCF91DF91CE
:102E30001F910F91FF90EF90DF90CF90BF90AF90D8
:102E40009F908F900895CF93DF93EB01FC018389CE
:102E5000882321F4CB010E94600E1DC0823069F0EE
:102E6000833018F48130A1F405C0833049F08430F8
:102E700079F409C0CB0161E008C0CB0163E005C073
:102E8000CB0164E002C0CB0167E041E00E94720E1A
:102E9000CE010E94560EDF91CF910895EF92FF92DE
:102EA0000F931F93CF93DF938C01F62EE72E862F7F
:102EB000972F60E041E00E94720ED8011F966D913D
:102EC0007D918D919C9152970E94B910EC018D30AB
:102ED00091050CF02C97CA30D10534F48F2D9E2D1E
:102EE00068EE71E00E94DC068F2D9E2DBE014AE047
:102EF00050E00E94C9068F2D9E2D6AEE71E00E945F
:102F0000DC06F80167857089818992890E94B31077
:102F1000EC018A30910534F48F2D9E2D68EE71E01E
:102F20000E94DC068F2D9E2DBE014AE050E00E94DB
:102F3000C906D801ED91FC910684F785E02DC80102
:102F400009958823A1F0F8016785708981899289A4
:102F50000E94B9100D972CF08F2D9E2D6CEE71E014
:102F600004C08F2D9E2D60EF71E00E94DC068F2D36
:102F70009E2D64EF71E00E94DC06DF91CF911F91DE
:102F80000F91FF90EF9008959C01F999FECF32BD0B
:102F900021BDF89A80B508959C01F999FECF1FBA1A
:102FA00032BD21BD60BD0FB6F894FA9AF99A0FBEF2
:102FB00008958DE395E00E947A0C8AE595E00E94E1
:102FC0001B1408958AE595E00E941C140895FC01E5
:102FD000478550896189728980916705909168055C
:102FE000A0916905B0916A0584179507A607B707F0
:102FF00071F040936705509368056093690570937D
:103000006A0581E090E02CEC37E10E94BD01089553
:10301000FC0147855089618972898091630590918F
:103020006405A0916505B091660584179507A6070C
:10303000B70771F04093630550936405609365058D
:103040007093660585E090E02CEC37E10E94BD01AD
:103050000895AF92BF92CF92DF92EF92FF920F93BB
:103060001F93CF93DF9383EF93E040E855E260E056
:1030700070E00E94CF0383EF93E06DEF71E00E9458
:10308000DF068DE395E060E142E020E00E94A90EBA
:103090008DE395E00E94A10E8DE090E00E948607EE
:1030A000182F092F63E072E00E9446131093610508
:1030B000009362058DE090E00E948607182F092F8B
:1030C00064E172E00E94461381E190E00E9486076D
:1030D0007C0164E272E04DE559E120E030E00E94BD
:1030E0007C1381E190E00E948607EC0164E372E0CA
:1030F0004DE559E121E030E00E947C1380916105AB
:1031000090916205612F702F0E945713812F902F8D
:10311000B7010E945713812F902FBE010E945713B1
:1031200081E794E060E070E00E94660880936005AB
:10313000823010F01092600580916005882329F498
:10314000F70184858160848703C08C8581608C87CA
:1031500085E090E064EC77E10E949701609363055D
:1031600070936405809365059093660581E090E017
:1031700064EC77E10E94970160936705709368059E
:103180008093690590936A058DE090E00E94860720
:10319000B82EA92E63E472E00E9446138091610567
:1031A000909162056B2D7A2D0E9457138DE090E06F
:1031B0000E948607F82EE92E6EE472E00E94461304
:1031C0008B2D9A2D6F2D7E2D0E94571384E190E058
:1031D0000E948607D82EC92E0091630510916405C0
:1031E00020916505309166056FE572E048E058E191
:1031F0000E9491138F2D9E2D6D2D7C2D0E945713B3
:103200008DE090E00E948607F82EE92E6AE672E0D3
:103210000E9446138B2D9A2D6F2D7E2D0E945713E1
:1032200084E190E00E948607D82EC92E00916705A0
:10323000109168052091690530916A056FE772E089
:1032400047EE57E10E94FF138F2D9E2D6D2D7C2D93
:103250000E94571340916105509162058AE595E0FF
:103260006DE375E00E947F158AE595E00E948D145C
:103270008DE193E10E943B120E949611029729F082
:1032800083EF93E068E872E004C083EF93E064EAC0
:1032900072E00E94DF06DF91CF911F910F91FF90A6
:1032A000EF90DF90CF90BF90AF9008950E949D0265
:1032B0000E9429180E94E217FDCFCF93DF93EC0103
:1032C0008C8580FD21C04F854093600581E794E0A7
:1032D00060E070E00E946D088C8581608C87EC81D5
:1032E000FD810284F385E02D09C0EC17FD0719F07C
:1032F00084858E7F84870084F185E02D3097A9F73F
:103300008AE595E00E948D14DF91CF910895505881
:10331000BB27AA270ED01EC10FD130F014D120F048
:1033200031F49F3F11F41EF404C10EF4E095E7FB65
:10333000CFC0E92F20D180F3BA1762077307840743
:10334000950718F071F49EF54FC10EF4E0950B2E21
:10335000BA2FA02D0B01B90190010C01CA01A001E7
:103360001124FF27591B99F0593F50F4503E68F142
:103370001A16F040A22F232F342F4427585FF3CF83
:10338000469537952795A795F0405395C9F77EF454
:103390001F16BA0B620B730B840BBAF09150A1F09D
:1033A000FF0FBB1F661F771F881FC2F70EC0BA0F23
:1033B000621F731F841F48F4879577956795B795AB
:1033C000F7959E3F08F0B3CF9395880F08F09927A3
:1033D000EE0F979587950895D6D088F09F5790F077
:1033E000B92F9927B751A0F0D1F0660F771F881F2A
:1033F000991F1AF0BA95C9F712C0B13081F0F4D014
:10340000B1E00895F1C0672F782F8827B85F39F0B1
:10341000B93FCCF3869577956795B395D9F73EF488
:1034200090958095709561957F4F8F4F9F4F089530
:10343000E89409C097FB3EF490958095709561954E
:103440007F4F8F4F9F4F9923A9F0F92F96E9BB2704
:103450009395F695879577956795B795F111F8CF80
:10346000FAF4BB0F11F460FF1BC06F5F7F4F8F4FEB
:103470009F4F16C0882311F096E911C0772321F0E1
:103480009EE8872F762F05C0662371F096E8862F79
:1034900070E060E02AF09A95660F771F881FDAF7D0
:1034A000880F9695879597F9089587D080F09F3774
:1034B00040F491110EF099C060E070E080E89FEB5D
:1034C000089526F41B16611D711D811D07C021C0C2
:1034D00097F99F6780E870E060E00895882371F4B1
:1034E000772321F09850872B762F07C0662311F49D
:1034F00099270DC09051862B70E060E02AF09A95D4
:10350000660F771F881FDAF7880F9695879597F9CA
:1035100008959F3F49F0915028F4869577956795D7
:10352000B7959F5F80389F4F880F9695879597F93D
:1035300008959FEF80EC089500240A94161617064C
:1035400018060906089500240A9412161306140694
:1035500005060895092E0394000C11F4882352F0F7
:10356000BB0F40F4BF2B11F460FF04C06F5F7F4FAF
:103570008F4F9F4F089557FD9058440F551F59F096
:103580005F3F71F04795880F97FB991F61F09F3F50
:1035900079F087950895121613061406551FF2CF79
:1035A0004695F1DF08C0161617061806991FF1CFC9
:1035B00086957105610508940895E5DFA0F0BEE7E2
:1035C000B91788F4BB279F3860F41616B11D672F12
:1035D000782F8827985FF7CF869577956795B11DE7
:1035E00093959639C8F30895E894BB276627772703
:1035F000CB0197F908950BD0ADCF9EDF28F0A3DF64
:1036000018F0952309F064CF94CF1124EECFB3DFE7
:10361000A0F3959FD1F3950F50E0551F629FF001E5
:10362000729FBB27F00DB11D639FAA27F00DB11D3E
:10363000AA1F649F6627B00DA11D661F829F2227C7
:10364000B00DA11D621F739FB00DA11D621F839F4E
:10365000A00D611D221F749F3327A00D611D231F24
:10366000849F600D211D822F762F6A2F11249F5772
:1036700050408AF0E1F088234AF0EE0FFF1FBB1F95
:10368000661F771F881F91505040A9F79E3F510534
:1036900070F01ECFAACF5F3FECF3983EDCF3869527
:1036A00077956795B795F795E7959F5FC1F7FE2BDF
:1036B000880F911D9695879597F90895629FD0017F
:1036C000739FF001829FE00DF11D649FE00DF11DDD
:1036D000929FF00D839FF00D749FF00D659FF00D8C
:1036E0009927729FB00DE11DF91F639FB00DE11D79
:1036F000F91FBD01CF0111240895991B79E004C081
:10370000991F961708F0961B881F7A95C9F7809520
:103710000895AA1BBB1B51E107C0AA1FBB1FA61718
:10372000B70710F0A61BB70B881F991F5A95A9F76A
:1037300080959095BC01CD01089597FB092E072631
:103740000AD077FD04D0E5DF06D000201AF470958A
:1037500061957F4F0895F6F7909581959F4F089555
:10376000A1E21A2EAA1BBB1BFD010DC0AA1FBB1F85
:10377000EE1FFF1FA217B307E407F50720F0A21BF7
:10378000B30BE40BF50B661F771F881F991F1A9464
:1037900069F760957095809590959B01AC01BD018E
:1037A000CF010895EE0FFF1F0590F491E02D0994CD
:0437B000F894FFCFBB
:1037B400627574746F6E2070726573736564002A29
:1037C400006174206D656E75206974656D3A200022
:1037D4006572726F72202D206E6F204C4344006519
:1037E40072726F72202D206E6F2063757272656E17
:1037F40074206974656D20746F207072696E740032
:10380400676F746F206669727374206368696C648F
:1038140000676F746F20706172656E7400676F74F7
:103824006F206E65787400676F746F207072696FB3
:103834007200202020202020205B55702F446F77B9
:103844006E5D00205B55702F446F776E7C456E74FF
:1038540065725D00202020202020202020202020B0
:103864005B55705D002020202020205B55707C4536
:103874006E7465725D0020202020202020202020EE
:103884005B446F776E5D00202020205B446F776E71
:103894007C456E7465725D0030003A0020504D0026
:1038A40020414D00205B456E7465725D0073657444
:1038B4007570004368617267696E6720456E616266
:1038C4006C6564004368617267696E67204D6F645C
:1038D40065203E004E6F726D616C20636861726793
:1038E400696E670054696D65642063686172676915
:1038F4006E670053657474696E6773203E00536588
:10390400742073746172742074696D65203E005371
:10391400746172742074696D6500536574207469F0
:103924006D6572206475726174696F6E203E004427
:1039340075726174696F6E00556E61626C65207496
:103944006F2073796E6320776974682074686520CA
:1039540052544300525443206861732073657420A9
:103964007468652073797374656D2074696D65007E
:1039740020006F050000FF2C01000000000000C1C2
:10398400049E05550486046604AF04000000005C30
:1039940005000000000B08DA0793079C07B107C273
:1039A40007000000004C0E9E050000400014005467
:1039B400001F1C1F1E1F1E1F1F1E1F1E1F00000096
:1039C400007716C8151815AD13DF1375144E17427A
:1039D400132317000000007B1560154515FD14F036
:1039E4001475148915000000007B1560154515FD3C
:1039F40014EC1475148915000000007716C8151806
:0E3A040015AD13DF1375144E1744132317006E
:00000001FF
