:100000000C9466000C9493000C94C0000C948E0029
:100010000C948E000C948E000C948E000C94790538
:100020000C948E000C948E000C948E000C948E0018
:100030000C948E000C948E000C948E000C948E0008
:100040000C94ED000C948E000C94F4010C94280296
:100050000C948E000C948E000C948E000C948E00E8
:100060000C9447070C948E00000000002400270029
:100070002A0000000000250028002B0000000000DE
:1000800023002600290004040404040404040202DA
:100090000202020203030303030301020408102007
:1000A0004080010204081020010204081020000012
:1000B0000007000201000003040600000000000029
:1000C000000002009F03EF030F06E60E11241FBE7F
:1000D000CFEFD8E0DEBFCDBF11E0A0E0B1E0EAE9AC
:1000E000FFE102C005900D92AC3FB107D9F713E0D4
:1000F000ACEFB1E001C01D92A63CB107E1F710E002
:10010000CCECD0E004C02297FE010E94C70FC43C93
:10011000D107C9F70E94560F0C9490000C94000070
:10012000F8940C94CB0F1F920F920FB60F921124DC
:100130002F933F934F935F936F937F938F939F93EF
:10014000AF93BF93EF93FF938091FC019091FD01DA
:10015000892B29F0E091FC01F091FD010995FF91B7
:10016000EF91BF91AF919F918F917F916F915F912F
:100170004F913F912F910F900FBE0F901F901895A8
:100180001F920F920FB60F9211242F933F934F930C
:100190005F936F937F938F939F93AF93BF93EF93EF
:1001A000FF938091FE019091FF01892B29F0E0914E
:1001B000FE01F091FF010995FF91EF91BF91AF9181
:1001C0009F918F917F916F915F914F913F912F916F
:1001D0000F900FBE0F901F9018951F920F920FB6A1
:1001E0000F9211242F933F938F939F93AF93BF93BD
:1001F0008091040290910502A0910602B09107023D
:10020000309108020196A11DB11D232F2D5F2D37BE
:1002100020F02D570196A11DB11D20930802809357
:10022000040290930502A0930602B0930702809106
:10023000000290910102A0910202B0910302019686
:10024000A11DB11D8093000290930102A0930202B0
:10025000B0930302BF91AF919F918F913F912F91E6
:100260000F900FBE0F901F901895019739F0880FCF
:10027000991F880F991F02970197F1F708957894B5
:1002800084B5826084BD84B5816084BD85B582609B
:1002900085BD85B5816085BDEEE6F0E08081816039
:1002A0008083E1E8F0E01082808182608083808139
:1002B00081608083E0E8F0E0808181608083E1EB11
:1002C000F0E0808184608083E0EBF0E080818160F9
:1002D0008083EAE7F0E080818460808380818260AF
:1002E0008083808181608083808180688083109298
:1002F000C1000895482F50E0CA0186569F4FFC0167
:1003000024914A575F4FFA0184918823C1F0E82F66
:10031000F0E0EE0FFF1FE859FF4FA591B49166235F
:1003200041F49FB7F8948C91209582238C939FBFC2
:1003300008959FB7F8948C91822B8C939FBF08955A
:10034000482F50E0CA0182559F4FFC012491CA01F9
:1003500086569F4FFC0194914A575F4FFA013491A2
:10036000332309F440C0222351F1233071F02430AB
:1003700028F42130A1F0223011F514C02630B1F05C
:100380002730C1F02430D9F404C0809180008F77E9
:1003900003C0809180008F7D8093800010C084B561
:1003A0008F7702C084B58F7D84BD09C08091B00075
:1003B0008F7703C08091B0008F7D8093B000E32FD2
:1003C000F0E0EE0FFF1FEE58FF4FA591B4912FB74D
:1003D000F894662321F48C919095892302C08C9126
:1003E000892B8C932FBF08951F920F920FB60F92F7
:1003F00011242F933F934F938F939F93EF93FF93EA
:100400004091C6002091490230914A022F5F3F4F30
:100410002F73307080914B0290914C02281739074E
:1004200059F0E0914902F0914A02E75FFD4F4083A5
:1004300030934A0220934902FF91EF919F918F914F
:100440004F913F912F910F900FBE0F901F901895D5
:100450001F920F920FB60F9211242F933F934F9339
:100460005F936F937F938F939F93AF93BF93EF931C
:10047000FF9320918D0230918E0280918F02909196
:1004800090022817390731F48091C1008F7D809345
:10049000C10016C0E0918F02F0919002E35BFD4F26
:1004A000408180918F0290919002019660E470E00B
:1004B0000E94900F9093900280938F024093C60009
:1004C000FF91EF91BF91AF919F918F917F916F912C
:1004D0005F914F913F912F910F900FBE0F901F9002
:1004E0001895AF92BF92DF92EF92FF920F931F93F6
:1004F000CF93DF93EC017A018B01DD24403081EE54
:10050000580780E0680780E0780711F0DD24D39475
:1005100091E0A92EB12CEC89FD89DD2069F0C5019F
:100520000E8C02C0880F991F0A94E2F7808360E066
:1005300079E08DE390E005C0108260E874E88EE118
:1005400090E0A80197010E94A30F21503040404045
:100550005040569547953795279580E120303807CC
:1005600020F0DD2011F0DD24D6CFE889F989308331
:10057000EA89FB892083EE89FF89408121E030E010
:10058000C9010A8C02C0880F991F0A94E2F7482B10
:100590004083EE89FF894081C9010B8C02C0880F1E
:1005A000991F0A94E2F7482B4083EE89FF89408126
:1005B000C9010C8C02C0880F991F0A94E2F7482BDE
:1005C0004083EE89FF8980810D8C02C0220F331F8A
:1005D0000A94E2F7209528232083DF91CF911F9181
:1005E0000F91FF90EF90DF90BF90AF900895DC01E6
:1005F0001C96ED91FC911D97E05CFF4F219131918C
:1006000080819181281B390B2F733070C9010895A7
:10061000DC011C96ED91FC911D97E05CFF4F208161
:100620003181E054F040DF01AE5BBF4F8D919C9172
:1006300011972817390719F42FEF3FEF07C08D9155
:100640009C91E80FF91F8081282F30E0C90108959F
:10065000DC011C96ED91FC911D97E05CFF4F208121
:100660003181E054F040DF01AE5BBF4F8D919C9132
:1006700011972817390719F42FEF3FEF10C08D910C
:100680009C911197E80FF91F20818D919C911197F2
:1006900001968F73907011969C938E9330E0C901F0
:1006A0000895FC0186859785DC01A05CBF4FFC01A5
:1006B000EE5BFF4F2D913C9111978081918128171E
:1006C0003907C1F70895CF93DF93EC01462FEE85EC
:1006D000FF85E05CFF4F80819181E054F0400196FE
:1006E00060E470E00E94900F9C01DF01AE5BBF4FA1
:1006F0008D919C91119728173907D1F3E05CFF4F3A
:1007000080819181E054F040E80FF91F4083EE852D
:10071000FF85E05CFF4F31832083EE89FF892081D4
:1007200081E090E00D8C02C0880F991F0A94E2F7D7
:10073000282B208381E090E0DF91CF9108951092E3
:1007400094021092930288EE93E0A0E0B0E08093D0
:10075000950290939602A0939702B09398028AEC28
:1007600091E0909392028093910289E092E09093BD
:100770009E0280939D028DE492E09093A00280936C
:100780009F0285EC90E09093A2028093A10284ECFA
:1007900090E09093A4028093A30280EC90E0909369
:1007A000A6028093A50281EC90E09093A80280932A
:1007B000A70286EC90E09093AA028093A90284E0BD
:1007C0008093AB0283E08093AC0287E08093AD021C
:1007D00085E08093AE0281E08093AF0208958AEDB8
:1007E00091E09093B1028093B0021092B202109205
:1007F000B3021092B4021092B50208958F929F92A4
:10080000AF92BF92CF92DF92EF92FF920F931F931E
:10081000CF93DF934C016B017C01AA24BB24C0E081
:10082000D0E0C601F70162814AE050E00E9419055C
:100830008C01C6016EE20E946A04080F191FA00E07
:10084000B11E21960894E11CF11CC330D10549F773
:10085000C601F40165814AE050E00E941905950146
:10086000280F391FC901DF91CF911F910F91FF9080
:10087000EF90DF90CF90BF90AF909F908F900895B2
:10088000CF92DF92EF92FF920F931F93CF93DF935C
:100890007C016B018A01C0E0D0E00FC0D6016D91F0
:1008A0006D01D701ED91FC910190F081E02DC70120
:1008B0000995C80FD91F015010400115110571F796
:1008C000CE01DF91CF911F910F91FF90EF90DF90BC
:1008D000CF900895DC01ED91FC910190F081E02D25
:1008E00009950895EF92FF920F931F938C01DC01FD
:1008F000ED91FC910190F081E02D6DE009957C0176
:10090000D801ED91FC910190F081E02DC8016AE0E1
:1009100009959C012E0D3F1DC9011F910F91FF905C
:10092000EF900895CF93DF93DB010D900020E9F75E
:100930001197A61BB70BEC01E881F9810280F381C6
:10094000E02DAD010995DF91CF9108954F925F920F
:100950007F928F929F92AF92BF92CF92DF92EF924F
:10096000FF920F931F93DF93CF93CDB7DEB7A1977D
:100970000FB6F894DEBF0FBECDBF2C01742ECB0195
:10098000223008F42AE019A231E2C32ED12CCC0E79
:10099000DD1E822E9924AA24BB24672D752FA50164
:1009A00094010E94A30F79018A01C801B701A50132
:1009B00094010E945D0F472D461B0894C108D10881
:1009C0004A3014F4405D01C0495CF6014083E114F3
:1009D000F1040105110521F07E2C5F2DC801DDCF4A
:1009E000C201B6010E949204A1960FB6F894DEBF30
:1009F0000FBECDBFCF91DF911F910F91FF90EF9070
:100A0000DF90CF90BF90AF909F908F907F905F903E
:100A10004F900895DC012115310541F4ED91FC91D1
:100A20000190F081E02D642F099508950E94A6049D
:100A30000895EF92FF920F931F939A01E62EFF24E1
:100A400000E010E0B801A7010E940A051F910F9174
:100A5000FF90EF9008950E9492040895EF92FF9204
:100A60000F931F937C010E9492048C01C7010E9486
:100A70007204080F191FC8011F910F91FF90EF908A
:100A80000895813041F0813018F08230D1F409C0EE
:100A900010926E00089580916F008D7F80936F009B
:100AA0000895809170008D7F8093700081E0809325
:100AB000B0008091B100887F84608093B100109273
:100AC000B30008951F93182F8091C501811711F06D
:100AD0009FEF06C0E2ECF0E094918FEF8093C501A8
:100AE000892F0E944105812F60E00E94A0011F9183
:100AF00008951F920F920FB60F9211242F933F93D8
:100B00004F935F936F937F938F939F93AF93BF9315
:100B1000EF93FF938091B6029091B702A091B80233
:100B2000B091B9020097A105B10551F1E091BA0267
:100B3000F091BB0280819091BC02892780838091D3
:100B4000B6029091B702A091B802B091B9021816FE
:100B500019061A061B06C4F48091B6029091B702DA
:100B6000A091B802B091B9020197A109B10980938F
:100B7000B6029093B702A093B802B093B90204C032
:100B80008091C5010E946205FF91EF91BF91AF91E5
:100B90009F918F917F916F915F914F913F912F9195
:100BA0000F900FBE0F901F90189581E08093020365
:100BB0006093DF02109200031092010308952091C8
:100BC000DE0230E08091DD02281B3109C901089561
:100BD0004091DD028091DE02481718F02FEF3FEFC1
:100BE0000AC0E42FF0E0E354FD4F8081282F30E06D
:100BF0004F5F4093DD02C9010895E091DD028091CD
:100C0000DE02E81718F0EFEFFFEF06C0F0E0E35464
:100C1000FD4F8081E82FF0E0CF01089508951092F4
:100C200006031092050388EE93E0A0E0B0E0809305
:100C3000070390930803A0930903B0930A0380EE7F
:100C400091E090930403809303030895CF92DF9281
:100C5000EF92FF920F931F93CF93DF937C016B0171
:100C60008A01809102038823A1F0C0E0D0E00DC08A
:100C7000D701ED91FC91D601AC0FBD1F0190F08121
:100C8000E02DC7016C9109952196C017D10780F31B
:100C900004C0CB01642F0E942C07C801DF91CF91C3
:100CA0001F910F91FF90EF90DF90CF900895DF9309
:100CB000CF930F92CDB7DEB7FC0169838091020319
:100CC0008823C9F080910103803238F081E090E000
:100CD0009383828320E030E015C080910003E82FE9
:100CE000F0E0E052FD4F998190838F5F8093000385
:100CF0008093010305C0CE01019661E00E942C079C
:100D000021E030E0C9010F90CF91DF9108958091EB
:100D1000DF0260EE72E04091010321E00E94E906EB
:100D200010920003109201031092020308954132C1
:100D300008F040E2862F6DEB72E00E94B20610923E
:100D4000DD028093DE0208950E94970608951092B6
:100D5000DD021092DE0210920003109201030E9445
:100D6000C2080895982F413210F040E030C08091C1
:100D70000F038823E1F781E080930F038FEF8093C7
:100D80007A03109235034150409336034F5F990F19
:100D900091609093100385EE8093BC0080910F03C7
:100DA0008130E1F380913503841710F440913503CD
:100DB00020E030E00AC0FB01E20FF31FD901AB5E77
:100DC000BC4F8C9180832F5F3F4F2417A0F3842F5B
:100DD00008951F93582F122F413210F081E03AC02E
:100DE00080910F038823E1F782E080930F038FEF58
:100DF00080937A031092350340933603A5E1B3E064
:100E0000FB0102C081918D938E2F861B8417D0F336
:100E1000852F90E0880F991F8093100385EE8093B3
:100E2000BC00112321F080910F038230E1F3809107
:100E30007A038F3F11F480E00DC080917A038032F5
:100E400011F482E007C080917A03803311F084E0CE
:100E500001C083E01F910895482F613210F081E0B6
:100E6000089580910F03843011F082E0089560931B
:100E70005803A7E3B3E0842F9C01F90102C08191DC
:100E80008D938E2F841B8617D0F380E008951F92D8
:100E90000F920FB60F9211242F933F934F935F93AE
:100EA0006F937F938F939F93AF93BF93EF93FF9332
:100EB0008091B90090E0887F90708036910509F4A8
:100EC000DCC081369105CCF58832910509F47BC0F0
:100ED00089329105B4F48031910509F46FC08131F4
:100EE00091053CF4009709F431C1089709F039C124
:100EF00065C08831910509F466C0809709F031C159
:100F00007DC08034910509F49FC08134910544F47B
:100F10008033910509F47DC0C89709F022C184C0CF
:100F20008035910509F484C08835910509F491C094
:100F30008834910509F015C198C08839910509F4E4
:100F4000FDC089399105ECF48837910509F495C005
:100F5000893791054CF48836910509F48EC08037A5
:100F6000910509F0FEC089C08838910509F4E6C0F2
:100F70008039910509F487C08038910509F0F1C0E6
:100F800082C0803B910509F4B0C0813B91054CF4CF
:100F9000803A910509F489C0883A910509F0E1C0C9
:100FA000A4C0803C910509F4CDC0883C910509F4AA
:100FB000C9C0883B910509F0D4C0ACC08091100332
:100FC0008093BB00B9C09091350380913603981788
:100FD00068F490913503E92FF0E0EB5EFC4F8081DF
:100FE0008093BB009F5F90933503A6C085ED8093EF
:100FF000BC008091BC0084FDFCCFB1C080E2809336
:101000007A0385ED8093BC008091BC0084FDFCCF09
:10101000A6C080E380937A0385ED8093BC00809125
:10102000BC0084FDFCCF9BC088E380937A038AC018
:10103000809135039091BB00E82FF0E0EB5EFC4F10
:1010400090838F5F809335039091350380913603B1
:1010500071C0809135039091BB00E82FF0E0EB5E0A
:10106000FC4F90838F5F8093350385ED8093BC00A8
:101070008091BC0084FDFCCF72C083E080930F039D
:101080001092790359C080917903803208F056C0DC
:10109000809179039091BB00E82FF0E0E75AFC4F74
:1010A00090838F5F8093790347C08091790380326A
:1010B00030F4E0917903F0E0E75AFC4F108285EDBF
:1010C0008093BC008091BC0084FDFCCF10920F0384
:1010D00060917903E0911303F091140389E593E0A3
:1010E00070E00995109279032DC084E080930F037E
:1010F0001092570310925803E0911103F0911203DC
:10110000099580915803882329F481E0809358033E
:101110001092370390915703E92FF0E0E95CFC4F00
:1011200080818093BB009F5F9093570390915703FA
:1011300080915803981710F485EC01C085E88093DE
:10114000BC000FC085EC8093BC0009C010927A03EC
:1011500085ED8093BC008091BC0084FDFCCF109293
:101160000F03FF91EF91BF91AF919F918F917F916D
:101170006F915F914F913F912F910F900FBE0F9004
:101180001F90189510920F0382E161E00E94A00168
:1011900083E161E00E94A001E9EBF0E080818E7FB5
:1011A000808380818D7F808388E48093B80085E48C
:1011B0008093BC000895682F83E093E00E94570657
:1011C0000895EF92FF920F931F93FC01F62EE72EE6
:1011D00003E013E060816062C80170E00E94D50501
:1011E00082E10E94DB088F2D0E94DB088E2D0E9479
:1011F000DB08C8010E9487061F910F91FF90EF90B6
:1012000008950F931F93CF93DF93EC01162F603156
:1012100010F080E028C0683010F402E102C01850DD
:1012200003E16881606283E093E070E00E94D5058D
:10123000802F0E94DB0883E093E00E94870668818C
:10124000606283E093E070E041E050E00E94A40619
:1012500083E093E00E94E80590E002C095958795B1
:101260001A95E2F78170DF91CF911F910F91089548
:10127000FF920F931F93CF93DF93EC01162FF42E61
:10128000603108F04AC0683010F40CE002C0185019
:101290000DE06881606283E093E070E00E94D50514
:1012A000802F0E94DB0883E093E00E94870668811C
:1012B000606283E093E070E041E050E00E94A406A9
:1012C00083E093E00E94E805282F81E0F81651F4AE
:1012D00081E090E002C0880F991F1A95E2F7122F63
:1012E000182B0AC081E090E002C0880F991F1A9560
:1012F000E2F7182F109512236881606283E093E073
:1013000070E00E94D505802F0E94DB08812F0E948B
:10131000DB0883E093E00E948706DF91CF911F9165
:101320000F91FF900895EF92FF920F931F93CF9329
:10133000DF93EC01162FE42E603108F04EC06830C8
:1013400020F492E1F92E04E104C0185083E1F82E54
:1013500005E16881606283E093E070E00E94D5055A
:10136000802F0E94DB0883E093E00E94870668815B
:10137000606283E093E070E041E050E00E94A406E8
:1013800083E093E00E94E805282F81E0E81651F4FD
:1013900081E090E002C0880F991F1A95E2F7122FA2
:1013A000182B0AC081E090E002C0880F991F1A959F
:1013B000E2F7182F109512236881606283E093E0B2
:1013C00070E00E94D5058F2D0E94DB08812F0E94BE
:1013D000DB0883E093E00E948706DF91CF911F91A5
:1013E0000F91FF90EF900895EF92FF920F931F934C
:1013F0008C0123E0E22E23E0F22EFC01608160628A
:10140000C70170E00E94D50582E10E94DB08C70198
:101410000E948706F80160816062C70170E042E0C7
:1014200050E00E94A406C7010E94E805082FC701EA
:101430000E94E805382F20E010E0022B132BC80192
:101440001F910F91FF90EF900895FF920F931F93BC
:10145000CF93DF93EC01162FF42E603108F049C0D2
:10146000683010F400E002C0185001E0688160624A
:1014700083E093E070E00E94D505802F0E94DB0896
:1014800083E093E00E9487066881606283E093E0D6
:1014900070E041E050E00E94A40683E093E00E94E7
:1014A000E805282FFF2051F481E090E002C0880F6A
:1014B000991F1A95E2F7122F182B0AC081E090E0CD
:1014C00002C0880F991F1A95E2F7182F1095122362
:1014D0006881606283E093E070E00E94D505802F10
:1014E0000E94DB08812F0E94DB0883E093E00E94CA
:1014F0008706DF91CF911F910F91FF900895CF93B1
:10150000DF93EC01683008F067E0688383E093E0E4
:101510000E94A7066881606283E093E070E00E9409
:10152000D50580E00E94DB088FEF0E94DB0883E096
:1015300093E00E9487066881606283E093E070E038
:101540000E94D50581E00E94DB088FEF0E94DB0836
:1015500083E093E00E948706DF91CF91089560E0D9
:101560000E947F0A0895FC011382128280EF91E0AD
:1015700091838083138E148A8FE084838EE0858329
:101580008DE086838CE087838BE080878AE081878B
:1015900089E08287178681E0808B82E0818B83E0FF
:1015A000828B84E0838B0895CF92DF92FF920F931A
:1015B0001F93CF93DF932CE1C22ED12CC80ED91EDE
:1015C0008C018FE1F82EC0E0D0E0C601F8016785FC
:1015D0000E94010990E00C2E02C0880F991F0A9406
:1015E000E2F78095F82221960F5F1F4FC530D10595
:1015F00061F78F2DDF91CF911F910F91FF90DF90B9
:10160000CF900895FC01838D8F3F29F0CF014C9638
:101610000E94250A0895862F642F0E947A0108955A
:10162000CF92DF92EF92FF920F931F93062FECE180
:10163000CE2ED12CC80ED91E10E0A8015695479584
:101640005695479561E0E62EF12C4E255F254170B9
:10165000C60168E00E949309A801569547954E255A
:101660005F254170C60167E00E9493090E251F2582
:101670000170C60166E0402F0E9493091F910F91EF
:10168000FF90EF90DF90CF900895FC01838D8F3F06
:1016900029F0CF014C960E9493090895862F642F5C
:1016A0000E94A00108950F931F938C01F801668199
:1016B00040E00E94450B81E090E00E943501C801A6
:1016C000F801668141E00E94450B81E090E00E94B4
:1016D0003501C801F801668140E00E94450B84E6AF
:1016E00090E00E9435011F910F910895CF92DF92F3
:1016F000EF92FF920F931F93CF93DF93F82EE92E73
:10170000282F392FC9018C01C0E0D0E0C62EDD247E
:101710008F2D9E2DF801678141E00E94020BA601EA
:101720000C2E02C0559547950A94E2F741708F2D13
:101730009E2DF80167810E94450B21960F5F1F4F78
:10174000C830D10529F78F2D9E2D0E94530BDF91B4
:10175000CF911F910F91FF90EF90DF90CF90089560
:10176000AF92BF92CF92DF92EF92FF920F931F93AF
:10177000CF93DF936C01E62EFC01838D8F3F09F43C
:101780006FC0FCE1AF2EB12CAC0CBD1CC5010E949A
:10179000F409AC01D601E0E0F0E001E010E06E2DCC
:1017A00070E017962C911797C1E0D0E0C801022E87
:1017B00002C0880F991F0A94E2F7809590958423C0
:1017C0009523AB010E2E02C0559547950A94E2F77A
:1017D0004170507002C0440F551F2A95E2F7482B04
:1017E000592B31961196E430F105D9F68E01F601A8
:1017F000068002C0000F111F0A94E2F700951095B1
:1018000004231523C501B8010E94E10881E090E09E
:101810000E9435017E01F601068002C0EE0CFF1C1D
:101820000A94E2F7E02AF12AC501B7010E94E10813
:1018300081E090E00E943501F601068002C0CC0FE5
:10184000DD1F0A94E2F7C095D095EC22FD22C50178
:10185000B7010E94E10884E690E00E94350121C0B2
:101860008601C0E0D0E0A62EBB24C601F801678146
:1018700041E00E94020BA5010C2E02C05595479530
:101880000A94E2F74170C601F80167810E94450B96
:1018900021960F5F1F4FC430D10539F7C6010E9452
:1018A000530BDF91CF911F910F91FF90EF90DF903D
:1018B000CF90BF90AF9008951F93CF93DF93EC012B
:1018C000162F6C810E94450B6D816F3F21F0CE0178
:1018D00040E00E94450B8C8984FF05C0CE01612F3A
:1018E0000E94760B0EC0612F70E0A4E0759567959D
:1018F000AA95E1F7CE010E94B00BCE01612F0E94A4
:10190000B00BDF91CF911F91089541E00E945C0CD4
:1019100081E090E0089540E00E945C0C0895FC0195
:101920006589862F8460858B6C60CF010E948B0C4B
:101930000895DF93CF93CDB7DEB728970FB6F8940D
:10194000DEBF0FBECDBF9C01FE013196A4EFB1E01A
:1019500088E00D9001928150E1F7F901808D8417A4
:1019600010F4482F4150E42FF0E0EE0FFF1FEC0F72
:10197000FD1F8181680F6068C9010E948B0C289649
:101980000FB6F894DEBF0FBECDBFCF91DF910895A3
:1019900061E00E948B0C80ED97E00E943501089574
:1019A0008F929F92AF92BF92CF92DF92EF92FF926F
:1019B0000F931F93CF93DF93EC01962EA42E822ECC
:1019C0008B8D8F3F09F452C083E093E00E94A706FD
:1019D0001CE1E12EF12CEC0EFD1EC7010E94AF0AA6
:1019E000C70168E041E00E94250AC70166E041E0C6
:1019F0000E94250AC70167E041E00E94250ACE0146
:101A000067E00E94100B6D81662321F0C70141E061
:101A10000E94250AC7016C8141E00E94250AC70186
:101A20006E8141E00E94250A6E018E01BB24C70130
:101A3000F801678141E00E94250AB3940F5F1F4FB0
:101A4000F4E0BF16A1F710E0C701F601678540E09A
:101A50000E94250AC701F601678541E00E94380906
:101A60001F5F0894C11CD11C153071F7F1E0FA1505
:101A700018F48C8988608C8BA88E9A8E198E882099
:101A800031F081E0A81619F48C8984608C8B80E594
:101A900093EC0E943501CE016C8140E00E94450B21
:101AA000CE016E8140E00E94450B6D816F3F21F0B9
:101AB000CE0140E00E94450B6C8964FD1DC0CE0143
:101AC00063E00E94B00B84E991E10E943501CE01F0
:101AD00063E00E94B00B84E991E10E943501CE01E0
:101AE00063E00E94B00B86E990E00E943501CE01D0
:101AF00062E00E94B00B16C06062CE010E948B0CA7
:101B000084E991E10E9435016C896062CE010E94F6
:101B10008B0C86E990E00E9435016C896062CE01F1
:101B20000E948B0C6C896062CE010E948B0C84E059
:101B30008D8BCE010E948F0CCE010E94C80C82E0DA
:101B40008E8BCE0166E00E948B0CDF91CF911F91AE
:101B50000F91FF90EF90DF90CF90BF90AF909F904C
:101B60008F900895FC01718360831186108617821F
:101B7000168215821482138212820895CF93DF9306
:101B8000FC01DB01C085D185209739F413969C9325
:101B90008E9312977187608713C0FE0186819781AB
:101BA000009711F0FC01FACFB783A6831596FC933A
:101BB000EE9314978A819B8113969C938E93129730
:101BC000DF91CF9108950895CF93DF93EC018C813D
:101BD0009D81892B09F44BC081E992E060E071E0BE
:101BE0000E942B05EC81FD816081718181E992E089
:101BF0000E942E05888199810097A1F10E94C80C4E
:101C00008881998160E040E00E94990C88819981E7
:101C10006FE071E00E942B05EC81FD816081718194
:101C2000888199810E942B05EC81FD8186819781B5
:101C3000892B19F18881998160E041E00E94990C1B
:101C40008881998162E171E00E942B05EC81FD8120
:101C50000680F781E02D60817181888199810E94E1
:101C60002B050BC081E992E065E171E004C081E9D8
:101C700092E064E271E00E942E05DF91CF91089519
:101C8000CF93DF93EC0181E992E065E471E00E947B
:101C90002E05EC81FD8180859185009729F09D833B
:101CA0008C83CE010E94E40DDF91CF910895CF93F4
:101CB000DF93EC0181E992E066E571E00E942E0578
:101CC000EC81FD8182819381009729F09D838C8333
:101CD000CE010E94E40DDF91CF910895CF93DF9361
:101CE000EC0181E992E062E671E00E942E05EC8150
:101CF000FD8186819781009729F09D838C83CE0199
:101D00000E94E40DDF91CF910895CF93DF93EC0112
:101D100081E992E06CE671E00E942E05EC81FD8184
:101D200084819581009729F09D838C83CE010E9448
:101D3000E40DDF91CF9108951F93CF93DF93EC01D2
:101D4000162F81E992E067E771E00E942E0513FFEC
:101D500004C0CE010E94850E11C012FF04C0CE0146
:101D60000E946E0E0BC014FF04C0CE010E94570EDD
:101D700005C011FF03C0CE010E94400EDF91CF913C
:101D80001F910895CF93DF93EC01888199810E9480
:101D9000D40A682F882369F0CE010E949C0E8881A6
:101DA00099810E94D40A888199810E94D40A88234B
:101DB000D1F7DF91CF910895FC0171836083538344
:101DC0004283558344830E94E40D08958BE793E09A
:101DD0000E94B30A88E993E00E94E30D8EE993E044
:101DE00066E871E00E94B20D88EA93E06CE871E069
:101DF0000E94B20D82EB93E06CE971E00E94B20D9B
:101E00008CEB93E06FEA71E00E94B20D089588E9CF
:101E100093E00E94C20E0895CF92DF92EF92FF925C
:101E20000F931F9301E912E0C80140E855E260E01A
:101E300070E00E947102C80169EB71E00E942E05FA
:101E40009BE7C92E93E0D92EC60160E142E020E075
:101E50000E94D00CC6010E94C80CC6016FEB71E055
:101E60000E942B050EE913E0C80168EA73E00E94A6
:101E7000BE0DC80162EB73E00E94BE0DC8016CEBA1
:101E800073E00E94BE0D88E9E82E83E0F82EC701BA
:101E9000B601A8010E94DC0EC7010E94E40D1F914B
:101EA0000F91FF90EF90DF90CF9008950E943F0137
:101EB0000E940C0F0E94070FFDCF629FD001739FFD
:101EC000F001829FE00DF11D649FE00DF11D929FD6
:101ED000F00D839FF00D749FF00D659FF00D992715
:101EE000729FB00DE11DF91F639FB00DE11DF91F39
:101EF000BD01CF0111240895AA1BBB1B51E107C0EE
:101F0000AA1FBB1FA617B70710F0A61BB70B881F89
:101F1000991F5A95A9F780959095BC01CD01089518
:101F200097FB092E07260AD077FD04D0E5DF06D0FF
:101F300000201AF4709561957F4F0895F6F79095FB
:101F400081959F4F0895A1E21A2EAA1BBB1BFD018C
:101F50000DC0AA1FBB1FEE1FFF1FA217B307E40788
:101F6000F50720F0A21BB30BE40BF50B661F771FE0
:101F7000881F991F1A9469F76095709580959095C0
:101F80009B01AC01BD01CF010895EE0FFF1F05902D
:0A1F9000F491E02D0994F894FFCFBE
:101F9A006174206D656E75206974656D3A20003E26
:101FAA0020002020006572726F72202D206E6F2033
:101FBA004C4344006572726F72202D206E6F20634D
:101FCA00757272656E74206974656D20746F207005
:101FDA0072696E7400676F746F2066697273742019
:101FEA006368696C6400676F746F20706172656EF4
:101FFA007400676F746F206E65787400676F746F12
:10200A00207072696F7200627574746F6E207072DC
:10201A006573736564005365747570005365742045
:10202A0054696D657220537461727400536574202B
:10203A0054696D6572204475726174696F6E0053DC
:10204A00657420436C6F636B007365747570006808
:10205A00656C6C6F00FF0000000063034004F70228
:10206A0028030803510300000000FE0300000000DB
:10207A0057062606DF05E805FD050E0600000000E6
:0C208A00850C40040000400014005400CD
:00000001FF
