:100000000C9468000C9497010C94C4010C9490001B
:100010000C9490000C9490000C9490000C94DE06CC
:100020000C9490000C9490000C9490000C94900010
:100030000C9490000C9490000C9490000C94900000
:100040000C94F1010C9490000C9406030C943A0368
:100050000C9490000C9490000C9490000C949000E0
:100060000C94C2080C9490000000000024002700AB
:100070002A0000000000250028002B0000000000DE
:1000800023002600290004040404040404040202DA
:100090000202020203030303030301020408102007
:1000A0004080010204081020010204081020000012
:1000B0000007000201000003040600000000000029
:1000C00000000200B104010577074B12F11204177A
:1000D00011241FBECFEFD8E0DEBFCDBF13E0A0E0FC
:1000E000B1E0E2E3F5E302C005900D92AA34B10756
:1000F000D9F715E0AAE4B3E001C01D92A335B1071A
:10010000E1F710E0C0EDD0E004C02297FE010E94AC
:10011000931AC43CD107C9F70E9415180C94940196
:100120000C940000CF93DF93BC018230910510F452
:1001300062E070E0A0915105B0915205ED01E0E060
:10014000F0E040E050E021C0888199818617970750
:1001500069F48A819B81309719F09383828304C06C
:100160009093520580935105FE0134C068177907BA
:1001700038F44115510519F08417950708F4AC01BE
:10018000FE018A819B819C01E9012097E9F64115D6
:100190005105A9F1CA01861B970B049708F4BA010F
:1001A000E0E0F0E02AC08D919C91119784179507AB
:1001B000F9F46417750781F412968D919C91139749
:1001C000309719F09383828304C0909352058093F3
:1001D0005105FD0132964CC0CA01861B970BFD01EB
:1001E000E80FF91F6193719302978D939C9340C020
:1001F000FD01828193819C01D9011097A1F6809124
:100200004F0590915005892B41F48091C90290913E
:10021000CA029093500580934F054091CB025091B4
:10022000CC024115510541F44DB75EB78091C7022C
:100230009091C802481B590B20914F0530915005F1
:10024000CA01821B930B8617970780F0AB014E5FA4
:100250005F4F8417950750F0420F531F509350057E
:1002600040934F05F9016193719302C0E0E0F0E023
:10027000CF01DF91CF910895CF93DF93009709F4D9
:1002800050C0EC0122971B821A82A0915105B091B7
:100290005205109709F140E050E0AC17BD0708F196
:1002A000BB83AA83FE0121913191E20FF31FAE17A8
:1002B000BF0779F48D919C911197280F391F2E5FFC
:1002C0003F4F3983288312968D919C9113979B837E
:1002D0008A834115510571F4D0935205C09351059D
:1002E00020C012968D919C911397AD01009711F04B
:1002F000DC01D3CFFA01D383C28321913191E20F84
:10030000F31FCE17DF0769F488819981280F391F01
:100310002E5F3F4FFA01318320838A819B81938333
:100320008283DF91CF910895F8940C94971A1F92CD
:100330000F920FB60F9211242F933F934F935F9319
:100340006F937F938F939F93AF93BF93EF93FF939D
:1003500080914A0390914B03892B29F0E0914A0345
:10036000F0914B030995FF91EF91BF91AF919F9150
:100370008F917F916F915F914F913F912F910F904E
:100380000FBE0F901F9018951F920F920FB60F92ED
:1003900011242F933F934F935F936F937F938F938A
:1003A0009F93AF93BF93EF93FF9380914C039091F2
:1003B0004D03892B29F0E0914C03F0914D030995F1
:1003C000FF91EF91BF91AF919F918F917F916F912D
:1003D0005F914F913F912F910F900FBE0F901F9003
:1003E00018951F920F920FB60F9211242F933F93DF
:1003F0008F939F93AF93BF93809152039091530338
:10040000A0915403B0915503309156030196A11D5C
:10041000B11D232F2D5F2D3720F02D570196A11DE3
:10042000B11D209356038093520390935303A093DE
:100430005403B093550380914E0390914F03A091C4
:100440005003B09151030196A11DB11D80934E033D
:1004500090934F03A0935003B0935103BF91AF917A
:100460009F918F913F912F910F900FBE0F901F90F2
:1004700018958FB7F894209152033091530340910F
:100480005403509155038FBFB901CA0108950197D4
:1004900039F0880F991F880F991F02970197F1F77C
:1004A0000895789484B5826084BD84B5816084BDEC
:1004B00085B5826085BD85B5816085BDEEE6F0E0DD
:1004C000808181608083E1E8F0E010828081826039
:1004D0008083808181608083E0E8F0E080818160BA
:1004E0008083E1EBF0E0808184608083E0EBF0E0EA
:1004F000808181608083EAE7F0E08081846080838E
:100500008081826080838081816080838081806837
:1005100080831092C1000895482F50E0CA0186568A
:100520009F4FFC0124914A575F4FFA018491882321
:10053000C1F0E82FF0E0EE0FFF1FE859FF4FA59143
:10054000B491662341F49FB7F8948C91209582234F
:100550008C939FBF08959FB7F8948C91822B8C93B6
:100560009FBF0895482F50E0CA0182559F4FFC015C
:100570002491CA0186569F4FFC0194914A575F4FC0
:10058000FA013491332309F440C0222351F123307E
:1005900071F0243028F42130A1F0223011F514C07C
:1005A0002630B1F02730C1F02430D9F404C0809156
:1005B00080008F7703C0809180008F7D80938000C2
:1005C00010C084B58F7702C084B58F7D84BD09C00B
:1005D0008091B0008F7703C08091B0008F7D8093B1
:1005E000B000E32FF0E0EE0FFF1FEE58FF4FA59194
:1005F000B4912FB7F894662321F48C9190958923B8
:1006000002C08C91892B8C932FBF08951F920F925B
:100610000FB60F9211242F933F934F938F939F9375
:10062000EF93FF934091C600209197033091980378
:100630002F5F3F4F2F7330708091990390919A03F1
:100640002817390759F0E0919703F0919803E95A78
:10065000FC4F40833093980320939703FF91EF91D1
:100660009F918F914F913F912F910F900FBE0F90BF
:100670001F9018951F920F920FB60F9211242F936F
:100680003F934F935F936F937F938F939F93AF931A
:10069000BF93EF93FF932091DB033091DC038091B4
:1006A000DD039091DE032817390731F48091C100F2
:1006B0008F7D8093C10016C0E091DD03F091DE03D1
:1006C000E556FC4F40818091DD039091DE03019659
:1006D00060E470E00E945C1A9093DE038093DD0377
:1006E0004093C600FF91EF91BF91AF919F918F9181
:1006F0007F916F915F914F913F912F910F900FBE1E
:100700000F901F901895AF92BF92DF92EF92FF92D9
:100710000F931F93CF93DF93EC017A018B01DD24BC
:10072000403081EE580780E0680780E0780711F0DC
:10073000DD24D39491E0A92EB12CEC89FD89DD2034
:1007400069F0C5010E8C02C0880F991F0A94E2F768
:10075000808360E079E08DE390E005C0108260E87E
:1007600074E88EE190E0A80197010E946F1A215071
:10077000304040405040569547953795279580E149
:100780002030380720F0DD2011F0DD24D6CFE889B5
:10079000F9893083EA89FB892083EE89FF894081CA
:1007A00021E030E0C9010A8C02C0880F991F0A9429
:1007B000E2F7482B4083EE89FF894081C9010B8C09
:1007C00002C0880F991F0A94E2F7482B4083EE89F4
:1007D000FF894081C9010C8C02C0880F991F0A94BF
:1007E000E2F7482B4083EE89FF8980810D8C02C09F
:1007F000220F331F0A94E2F7209528232083DF91EC
:10080000CF911F910F91FF90EF90DF90BF90AF902D
:100810000895DC011C96ED91FC911D97E05CFF4F63
:100820002191319180819181281B390B2F73307078
:10083000C9010895DC011C96ED91FC911D97E05CC7
:10084000FF4F20813181E054F040DF01AE5BBF4FAC
:100850008D919C9111972817390719F42FEF3FEFCD
:1008600007C08D919C91E80FF91F8081282F30E0FF
:10087000C9010895DC011C96ED91FC911D97E05C87
:10088000FF4F20813181E054F040DF01AE5BBF4F6C
:100890008D919C9111972817390719F42FEF3FEF8D
:1008A00010C08D919C911197E80FF91F20818D91B7
:1008B0009C91119701968F73907011969C938E93D3
:1008C00030E0C9010895FC0186859785DC01A05CB4
:1008D000BF4FFC01EE5BFF4F2D913C911197808142
:1008E000918128173907C1F70895CF93DF93EC0161
:1008F000462FEE85FF85E05CFF4F80819181E054BB
:10090000F040019660E470E00E945C1A9C01DF01F7
:10091000AE5BBF4F8D919C91119728173907D1F38A
:10092000E05CFF4F80819181E054F040E80FF91FB7
:100930004083EE85FF85E05CFF4F31832083EE89A5
:10094000FF89208181E090E00D8C02C0880F991F03
:100950000A94E2F7282B208381E090E0DF91CF9189
:1009600008951092E2031092E10388EE93E0A0E074
:10097000B0E08093E3039093E403A093E503B09386
:10098000E60386ED92E09093E0038093DF0387E532
:1009900093E09093EC038093EB038BE993E09093C7
:1009A000EE038093ED0385EC90E09093F003809349
:1009B000EF0384EC90E09093F2038093F10380ECDA
:1009C00090E09093F4038093F30381EC90E0909394
:1009D000F6038093F50386EC90E09093F803809300
:1009E000F70384E08093F90383E08093FA0387E0C0
:1009F0008093FB0385E08093FC0381E08093FD03FB
:100A0000089586EE92E09093FF038093FE03109288
:100A1000000410920104109202041092030408953D
:100A20008F929F92AF92BF92CF92DF92EF92FF92FE
:100A30000F931F93CF93DF934C016B017C01AA248A
:100A4000BB24C0E0D0E0C601F70162814AE050E07B
:100A50000E942B068C01C6016EE20E947C05080FE5
:100A6000191FA00EB11E21960894E11CF11CC33081
:100A7000D10549F7C601F40165814AE050E00E94C2
:100A80002B069501280F391FC901DF91CF911F91C6
:100A90000F91FF90EF90DF90CF90BF90AF909F901D
:100AA0008F900895CF92DF92EF92FF920F931F9352
:100AB000CF93DF937C016B018A01C0E0D0E00FC0CF
:100AC000D6016D916D01D701ED91FC910190F081FE
:100AD000E02DC7010995C80FD91F0150104001151D
:100AE000110571F7CE01DF91CF911F910F91FF900A
:100AF000EF90DF90CF900895DC01ED91FC91019093
:100B0000F081E02D09950895EF92FF920F931F93C6
:100B10008C01DC01ED91FC910190F081E02D6DE004
:100B200009957C01D801ED91FC910190F081E02DB7
:100B3000C8016AE009959C012E0D3F1DC9011F9156
:100B40000F91FF90EF900895CF93DF93DB010D900D
:100B50000020E9F71197A61BB70BEC01E881F9819A
:100B60000280F381E02DAD010995DF91CF910895C9
:100B70004F925F927F928F929F92AF92BF92CF924D
:100B8000DF92EF92FF920F931F93DF93CF93CDB736
:100B9000DEB7A1970FB6F894DEBF0FBECDBF2C0114
:100BA000742ECB01223008F42AE019A231E2C32EC0
:100BB000D12CCC0EDD1E822E9924AA24BB24672DB5
:100BC000752FA50194010E946F1A79018A01C8014D
:100BD000B701A50194010E941D1A472D461B0894D8
:100BE000C108D1084A3014F4405D01C0495CF601E7
:100BF0004083E114F1040105110521F07E2C5F2DE5
:100C0000C801DDCFC201B6010E94A405A1960FB6AE
:100C1000F894DEBF0FBECDBFCF91DF911F910F9132
:100C2000FF90EF90DF90CF90BF90AF909F908F900C
:100C30007F905F904F900895DC012115310541F4BC
:100C4000ED91FC910190F081E02D642F09950895BC
:100C50000E94B8050895EF92FF920F931F939A0197
:100C6000E62EFF2400E010E0B801A7010E941C0658
:100C70001F910F91FF90EF900895CF92DF92EF9226
:100C8000FF920F931F93CF93DF93EC016A017B01D7
:100C90002115310541F4E881F9810190F081E02DC1
:100CA000642F09951FC02A303105D1F477FF17C092
:100CB000E881F9810190F081E02D6DE209958C01C8
:100CC00044275527BA014C195D096E097F09CE01E9
:100CD0002AE00E94B8059801280F391F04C02AE0B5
:100CE0000E94B8059C01C901DF91CF911F910F911E
:100CF000FF90EF90DF90CF900895EF92FF920F93C7
:100D00001F937B019A010027F7FC0095102FB80173
:100D1000A7010E943D061F910F91FF90EF9008954B
:100D20000E94A4050895EF92FF920F931F937C01F8
:100D30000E94A4058C01C7010E948405080F191F99
:100D4000C8011F910F91FF90EF900895813041F0FD
:100D5000813018F08230D1F409C010926E000895ED
:100D600080916F008D7F80936F0008958091700057
:100D70008D7F8093700081E08093B0008091B100FE
:100D8000887F84608093B1001092B30008951F9310
:100D9000182F8091CD02811711F09FEF06C0E2EC71
:100DA000F0E094918FEF8093CD02892F0E94A606E8
:100DB000812F60E00E94B2021F9108951F920F924E
:100DC0000FB60F9211242F933F934F935F936F931E
:100DD0007F938F939F93AF93BF93EF93FF938091F4
:100DE000040490910504A0910604B09107040097B3
:100DF000A105B10551F1E0910804F0910904808149
:100E000090910A04892780838091040490910504BD
:100E1000A0910604B0910704181619061A061B06BD
:100E2000C4F48091040490910504A0910604B0914B
:100E300007040197A109B109809304049093050464
:100E4000A0930604B093070404C08091CD020E94D1
:100E5000C706FF91EF91BF91AF919F918F917F91C5
:100E60006F915F914F913F912F910F900FBE0F9017
:100E70001F9018950E949200089581E0809350047D
:100E800060932D0410924E0410924F040895209107
:100E90002C0430E080912B04281B3109C9010895EE
:100EA00040912B0480912C04481718F02FEF3FEF4E
:100EB0000AC0E42FF0E0E55FFB4F8081282F30E08F
:100EC0004F5F40932B04C9010895E0912B0480915A
:100ED0002C04E81718F0EFEFFFEF06C0F0E0E55F35
:100EE000FB4F8081E82FF0E0CF0108950895109224
:100EF00054041092530488EE93E0A0E0B0E0809395
:100F0000550490935604A0935704B09358048CEE64
:100F100092E090935204809351040895CF92DF920F
:100F2000EF92FF920F931F93CF93DF937C016B019E
:100F30008A01809150048823A1F0C0E0D0E00DC068
:100F4000D701ED91FC91D601AC0FBD1F0190F0814E
:100F5000E02DC7016C9109952196C017D10780F348
:100F600004C0CB01642F0E94A708C801DF91CF9174
:100F70001F910F91FF90EF90DF90CF900895DF9336
:100F8000CF930F92CDB7DEB7FC01698380915004F7
:100F90008823C9F080914F04803238F081E090E0DE
:100FA0009383828320E030E015C080914E04E82FC7
:100FB000F0E0E25DFB4F998190838F5F80934E0458
:100FC00080934F0405C0CE01019661E00E94A708FE
:100FD00021E030E0C9010F90CF91DF910895809119
:100FE0002D046EE274E040914F0421E00E946408F9
:100FF00010924E0410924F04109250040895413202
:1010000008F040E2862F6BE074E00E942D081092F9
:101010002B0480932C0408950E94FF0708951092DA
:101020002B0410922C0410924E0410924F040E9434
:101030003D0A0895F999FECF72BD61BDF89A80B559
:101040000895F999FECF1FBA72BD61BD40BD0FB6BC
:10105000F894FA9AF99A0FBE0895982F413210F039
:1010600040E030C080915E048823E1F781E0809306
:101070005E048FEF8093C904109284044150409322
:1010800085044F5F990F916090935F0485EE809384
:10109000BC0080915E048130E1F380918404841768
:1010A00010F44091840420E030E00AC0FB01E20F1C
:1010B000F31FD901AC59BB4F8C9180832F5F3F4FF9
:1010C0002417A0F3842F08951F93582F122F413215
:1010D00010F081E03AC080915E048823E1F782E05D
:1010E00080935E048FEF8093C90410928404409330
:1010F0008504A4E6B4E0FB0102C081918D938E2F9C
:10110000861B8417D0F3852F90E0880F991F80935A
:101110005F0485EE8093BC00112321F080915E0472
:101120008230E1F38091C9048F3F11F480E00DC05B
:101130008091C904803211F482E007C08091C90413
:10114000803311F084E001C083E01F910895482F9F
:10115000613210F081E0089580915E04843011F0D6
:1011600082E008956093A704A6E8B4E0842F9C0170
:10117000F90102C081918D938E2F841B8617D0F3C5
:1011800080E008951F920F920FB60F9211242F93B3
:101190003F934F935F936F937F938F939F93AF93FF
:1011A000BF93EF93FF938091B90090E0887F907098
:1011B0008036910509F4DCC081369105CCF5883282
:1011C000910509F47BC089329105B4F48031910511
:1011D00009F46FC0813191053CF4009709F431C1E5
:1011E000089709F039C165C08831910509F466C0D6
:1011F000809709F031C17DC08034910509F49FC00A
:101200008134910544F48033910509F47DC0C89779
:1012100009F022C184C08035910509F484C0883565
:10122000910509F491C08834910509F015C198C061
:101230008839910509F4FDC089399105ECF48837A6
:10124000910509F495C0893791054CF488369105CC
:1012500009F48EC08037910509F0FEC089C0883836
:10126000910509F4E6C08039910509F487C08038FA
:10127000910509F0F1C082C0803B910509F4B0C02E
:10128000813B91054CF4803A910509F489C0883A74
:10129000910509F0E1C0A4C0803C910509F4CDC0DE
:1012A000883C910509F4C9C0883B910509F0D4C078
:1012B000ACC080915F048093BB00B9C0909184045E
:1012C00080918504981768F490918404E92FF0E0E8
:1012D000EC59FB4F80818093BB009F5F9093840407
:1012E000A6C085ED8093BC008091BC0084FDFCCF3E
:1012F000B1C080E28093C90485ED8093BC008091E9
:10130000BC0084FDFCCFA6C080E38093C90485EDBA
:101310008093BC008091BC0084FDFCCF9BC088E31F
:101320008093C9048AC0809184049091BB00E82F07
:10133000F0E0EC59FB4F90838F5F80938404909191
:1013400084048091850471C0809184049091BB00D5
:10135000E82FF0E0EC59FB4F90838F5F809384047B
:1013600085ED8093BC008091BC0084FDFCCF72C0F1
:1013700083E080935E041092C80459C08091C80431
:10138000803208F056C08091C8049091BB00E82FCD
:10139000F0E0E855FB4F90838F5F8093C80447C00F
:1013A0008091C804803230F4E091C804F0E0E85540
:1013B000FB4F108285ED8093BC008091BC0084FDC2
:1013C000FCCF10925E046091C804E0916204F09139
:1013D000630488EA94E070E009951092C8042DC077
:1013E00084E080935E041092A6041092A704E0911A
:1013F0006004F091610409958091A704882329F481
:1014000081E08093A704109286049091A604E92FAE
:10141000F0E0EA57FB4F80818093BB009F5F909381
:10142000A6049091A6048091A704981710F485EC67
:1014300001C085E88093BC000FC085EC8093BC00A0
:1014400009C01092C90485ED8093BC008091BC0056
:1014500084FDFCCF10925E04FF91EF91BF91AF919C
:101460009F918F917F916F915F914F913F912F91BC
:101470000F900FBE0F901F90189510925E0482E19E
:1014800061E00E94B20283E161E00E94B202E9EBF6
:10149000F0E080818E7F808380818D7F808388E4EF
:1014A0008093B80085E48093BC000895682F81E59F
:1014B00094E00E94BF070895EF92FF920F931F934D
:1014C000FC01F62EE72E01E514E060816062C801A0
:1014D00070E00E943D0782E10E94560A8F2D0E9413
:1014E000560A8E2D0E94560AC8010E94EF071F91CE
:1014F0000F91FF90EF9008950F931F93CF93DF9379
:10150000EC01162F603110F080E028C0683010F434
:1015100002E102C0185003E16881606281E594E055
:1015200070E00E943D07802F0E94560A81E594E0FA
:101530000E94EF076881606281E594E070E041E01D
:1015400050E00E940C0881E594E00E94500790E072
:1015500002C0959587951A95E2F78170DF91CF913A
:101560001F910F910895FF920F931F93CF93DF93D5
:10157000EC01162FF42E603108F04AC0683010F4E8
:101580000CE002C018500DE06881606281E594E0D3
:1015900070E00E943D07802F0E94560A81E594E08A
:1015A0000E94EF076881606281E594E070E041E0AD
:1015B00050E00E940C0881E594E00E945007282F1B
:1015C00081E0F81651F481E090E002C0880F991F85
:1015D0001A95E2F7122F182B0AC081E090E002C0A2
:1015E000880F991F1A95E2F7182F1095122368811A
:1015F000606281E594E070E00E943D07802F0E94C8
:10160000560A812F0E94560A81E594E00E94EF0756
:10161000DF91CF911F910F91FF900895EF92FF926C
:101620000F931F93CF93DF93EC01162FE42E6031BD
:1016300008F04EC0683020F492E1F92E04E104C0B5
:10164000185083E1F82E05E16881606281E594E03D
:1016500070E00E943D07802F0E94560A81E594E0C9
:101660000E94EF076881606281E594E070E041E0EC
:1016700050E00E940C0881E594E00E945007282F5A
:1016800081E0E81651F481E090E002C0880F991FD4
:101690001A95E2F7122F182B0AC081E090E002C0E1
:1016A000880F991F1A95E2F7182F10951223688159
:1016B000606281E594E070E00E943D078F2D0E94FA
:1016C000560A812F0E94560A81E594E00E94EF0796
:1016D000DF91CF911F910F91FF90EF900895EF92BE
:1016E000FF920F931F938C0121E5E22E24E0F22E4E
:1016F000FC0160816062C70170E00E943D0782E1E9
:101700000E94560AC7010E94EF07F80160816062DB
:10171000C70170E042E050E00E940C08C7010E943F
:101720005007082FC7010E945007382F20E010E013
:10173000022B132BC8011F910F91FF90EF9008957A
:10174000FF920F931F93CF93DF93EC01162FF42E8C
:10175000603108F049C0683010F400E002C0185051
:1017600001E06881606281E594E070E00E943D07DD
:10177000802F0E94560A81E594E00E94EF0768815D
:10178000606281E594E070E041E050E00E940C0866
:1017900081E594E00E945007282FFF2051F481E05A
:1017A00090E002C0880F991F1A95E2F7122F182BAC
:1017B0000AC081E090E002C0880F991F1A95E2F7F5
:1017C000182F109512236881606281E594E070E023
:1017D0000E943D07802F0E94560A812F0E94560AC0
:1017E00081E594E00E94EF07DF91CF911F910F9167
:1017F000FF900895CF93DF93EC01683008F067E025
:10180000688381E594E00E940F086881606281E549
:1018100094E070E00E943D0780E00E94560A8FEF3E
:101820000E94560A81E594E00E94EF076881606299
:1018300081E594E070E00E943D0781E00E94560A35
:101840008FEF0E94560A81E594E00E94EF07DF9136
:10185000CF91089560E00E94FA0B0895FC01138275
:1018600012828CEF92E091838083138E148A8FE032
:1018700084838EE085838DE086838CE087838BE094
:1018800080878AE0818789E08287178681E0808B64
:1018900082E0818B83E0828B84E0838B0895CF92FA
:1018A000DF92FF920F931F93CF93DF932CE1C22E11
:1018B000D12CC80ED91E8C018FE1F82EC0E0D0E0EB
:1018C000C601F80167850E947C0A90E00C2E02C0D8
:1018D000880F991F0A94E2F78095F82221960F5FEE
:1018E0001F4FC530D10561F78F2DDF91CF911F912B
:1018F0000F91FF90DF90CF900895FC01838D8F3F73
:1019000029F0CF014C960E94A00B0895862F642FDA
:101910000E948C020895CF92DF92EF92FF920F9374
:101920001F93062FECE1CE2ED12CC80ED91E10E04D
:10193000A801569547955695479561E0E62EF12CFE
:101940004E255F254170C60168E00E940E0BA8017C
:10195000569547954E255F254170C60167E00E9468
:101960000E0B0E251F250170C60166E0402F0E9458
:101970000E0B1F910F91FF90EF90DF90CF90089585
:10198000FC01838D8F3F29F0CF014C960E940E0BF6
:101990000895862F642F0E94B20208950F931F931B
:1019A0008C01F801668140E00E94C00C81E090E06B
:1019B0000E944702C801F801668141E00E94C00C04
:1019C00081E090E00E944702C801F801668140E092
:1019D0000E94C00C84E690E00E9447021F910F9184
:1019E0000895CF92DF92EF92FF920F931F93CF93C0
:1019F000DF93F82EE92E282F392FC9018C01C0E082
:101A0000D0E0C62EDD248F2D9E2DF801678141E0A8
:101A10000E947D0CA6010C2E02C0559547950A9494
:101A2000E2F741708F2D9E2DF80167810E94C00C56
:101A300021960F5F1F4FC830D10529F78F2D9E2D9E
:101A40000E94CE0CDF91CF911F910F91FF90EF90EC
:101A5000DF90CF900895AF92BF92CF92DF92EF9236
:101A6000FF920F931F93CF93DF936C01E62EFC013F
:101A7000838D8F3F09F46FC0FCE1AF2EB12CAC0C0D
:101A8000BD1CC5010E946F0BAC01D601E0E0F0E087
:101A900001E010E06E2D70E017962C911797C1E0D1
:101AA000D0E0C801022E02C0880F991F0A94E2F705
:101AB0008095909584239523AB010E2E02C05595F9
:101AC00047950A94E2F74170507002C0440F551FC9
:101AD0002A95E2F7482B592B31961196E430F105FF
:101AE000D9F68E01F601068002C0000F111F0A947C
:101AF000E2F70095109504231523C501B8010E9453
:101B00005C0A81E090E00E9447027E01F6010680B7
:101B100002C0EE0CFF1C0A94E2F7E02AF12AC5018C
:101B2000B7010E945C0A81E090E00E944702F60142
:101B3000068002C0CC0FDD1F0A94E2F7C095D09555
:101B4000EC22FD22C501B7010E945C0A84E690E008
:101B50000E94470221C08601C0E0D0E0A62EBB242F
:101B6000C601F801678141E00E947D0CA5010C2EA1
:101B700002C0559547950A94E2F74170C601F801F5
:101B800067810E94C00C21960F5F1F4FC430D105A2
:101B900039F7C6010E94CE0CDF91CF911F910F91B2
:101BA000FF90EF90DF90CF90BF90AF9008951F937C
:101BB000CF93DF93EC01162F6C810E94C00C6D81D6
:101BC0006F3F21F0CE0140E00E94C00C8C8984FF61
:101BD00005C0CE01612F0E94F10C0EC0612F70E094
:101BE000A4E075956795AA95E1F7CE010E942B0DAB
:101BF000CE01612F0E942B0DDF91CF911F9108958F
:101C000041E00E94D70D81E090E0089540E00E94FD
:101C1000D70D0895FC016589862F8160858B6960E9
:101C2000CF010E94060E0895FC0165896E7F658BC9
:101C300068600E94060E0895FC016589862F846005
:101C4000858B6C60CF010E94060E0895DF93CF93C1
:101C5000CDB7DEB728970FB6F894DEBF0FBECDBF65
:101C60009C01FE013196A0E0B3E088E00D90019266
:101C70008150E1F7F901808D841710F4482F41500D
:101C8000E42FF0E0EE0FFF1FEC0FFD1F8181680FC6
:101C90006068C9010E94060E28960FB6F894DEBF50
:101CA0000FBECDBFCF91DF91089561E00E94060E77
:101CB00080ED97E00E94470208958F929F92AF9225
:101CC000BF92CF92DF92EF92FF920F931F93CF9329
:101CD000DF93EC01962EA42E822E8B8D8F3F09F47C
:101CE00052C081E594E00E940F081CE1E12EF12C26
:101CF000EC0EFD1EC7010E942A0CC70168E041E0FE
:101D00000E94A00BC70166E041E00E94A00BC70142
:101D100067E041E00E94A00BCE0167E00E948B0CBF
:101D20006D81662321F0C70141E00E94A00BC7012D
:101D30006C8141E00E94A00BC7016E8141E00E94CE
:101D4000A00B6E018E01BB24C701F801678141E041
:101D50000E94A00BB3940F5F1F4FF4E0BF16A1F7D2
:101D600010E0C701F601678540E00E94A00BC701A3
:101D7000F601678541E00E94B30A1F5F0894C11C09
:101D8000D11C153071F7F1E0FA1518F48C898860D0
:101D90008C8BA88E9A8E198E882031F081E0A8163F
:101DA00019F48C8984608C8B80E593EC0E94470247
:101DB000CE016C8140E00E94C00CCE016E8140E0FB
:101DC0000E94C00C6D816F3F21F0CE0140E00E9467
:101DD000C00C6C8964FD1DC0CE0163E00E942B0D18
:101DE00084E991E10E944702CE0163E00E942B0D3D
:101DF00084E991E10E944702CE0163E00E942B0D2D
:101E000086E990E00E944702CE0162E00E942B0D1D
:101E100016C06062CE010E94060E84E991E10E9424
:101E200047026C896062CE010E94060E86E990E04E
:101E30000E9447026C896062CE010E94060E6C8986
:101E40006062CE010E94060E84E08D8BCE010E945E
:101E50001C0ECE010E94550E82E08E8BCE0166E0F4
:101E60000E94060EDF91CF911F910F91FF90EF908E
:101E7000DF90CF90BF90AF909F908F9008958F92FA
:101E80009F92AF92BF92CF92DF92EF92FF920F9309
:101E90001F93CF93DF937B018C01EA012CE330E0A9
:101EA00040E050E00E946F1A6883C801B7012CE33C
:101EB00030E040E050E00E946F1A122F032FF42E02
:101EC000E52E622F732F842F952F2CE330E040E016
:101ED00050E00E946F1A6983612F702F8F2D9E2D05
:101EE0002CE330E040E050E00E946F1A122F032FE5
:101EF000F42EE52E622F732F842F952F28E130E0EA
:101F000040E050E00E946F1A6A83612F702F8F2D7E
:101F10009E2D28E130E040E050E00E946F1A7901E8
:101F20008A01C801B7016C5F7F4F8F4F9F4F27E039
:101F300030E040E050E00E946F1A6F5F6B8320E05A
:101F4000AA24BB24650101C02F5F822E9924F401CD
:101F5000EE54F84FCF0183709070892B99F4CF0124
:101F600064E670E00E945C1A892B39F4CF0160E9C5
:101F700071E00E945C1A892B29F48EE691E0A0E0C2
:101F8000B0E004C08DE691E0A0E0B0E0A80EB91E7C
:101F9000CA1EDB1EC501A0E0B0E0E816F9060A077C
:101FA0001B0790F62E83F401EE54F84F83E0882E41
:101FB000912C8E229F228114910499F4CF0164E622
:101FC00070E00E945C1A892B39F4CF0160E971E05E
:101FD0000E945C1A892B29F48EE691E0A0E0B0E023
:101FE00004C08DE691E0A0E0B0E0A81AB90ACA0AE0
:101FF000DB0A980187010A191B092C093D09CF0149
:1020000064E670E00E945C1A7C01CF0160E971E037
:102010000E945C1AAC01E8E0F3E060E0613051F44A
:102020008114910449F4E114F10441F4411551057E
:1020300029F002C0808103C08CE101C08DE190E0F5
:10204000A0E0B0E0081719072A073B0740F0081B7B
:10205000190B2A0B3B0B6F5F31966C30F9F66F5FF3
:102060006D83802F8F5F8C83DF91CF911F910F91B4
:10207000FF90EF90DF90CF90BF90AF909F908F90A8
:102080000895EF92FF920F931F937B018C01809133
:10209000E1049091E204A091E304B091E404E81615
:1020A000F9060A071B0771F0C801B70146ED54E0B5
:1020B0000E943F0FE092E104F092E2040093E304F7
:1020C0001093E4041F910F91FF90EF9008950E94E8
:1020D00041108091D70490E008950E9441108091B2
:1020E000D80490E008954F925F926F927F928F9202
:1020F0009F92AF92BF92CF92DF92EF92FF920F9397
:102100001F93CF93DF934C01DC0116961C91612F36
:1021100070E080E090E020E833E341EE51E00E947F
:102120001D1A5B016C0122EB37E0E12FF0E0EE5469
:10213000F84F1DC0C90183709070892BB1F4C9019B
:1021400064E670E00E945C1A892B39F4C90160E9E9
:1021500071E00E945C1A892B41F480E891E5A1E0CE
:10216000B0E0A80EB91ECA1EDB1E2F5F3F4F2E1710
:102170003F0701F7D40115968C91482E5524C901CB
:1021800064E670E00E945C1A7C01C90160E971E0BC
:102190000E945C1A8C01C1E0D0E093E0692E712CA2
:1021A0006222732227C0C230D10591F461147104F8
:1021B00079F4E114F10419F40115110549F480E8EA
:1021C0009BE3A6E2B0E0A80EB91ECA1EDB1E11C03A
:1021D000FE01E95FFC4F608170E080E090E020E864
:1021E00031E541E050E00E941D1AA60EB71EC81E40
:1021F000D91E2196C415D505B4F2D40112966C915E
:1022000070E080E090E020E13EE040E050E00E949D
:102210001D1A7B018C01F401618170E080E090E087
:102220002CE330E040E050E00E941D1AE60EF71E5D
:10223000081F191FD4018C91E80EF11C011D111DFE
:1022400014966C9170E061507040882777FD8095FE
:10225000982F20E831E541E050E00E941D1AE60E7B
:10226000F71E081F191FEA0CFB1C0C1D1D1DB701D2
:10227000C801DF91CF911F910F91FF90EF90DF90F8
:10228000CF90BF90AF909F908F907F906F905F9016
:102290004F9008958091D4049091D504089560934F
:1022A000CC047093CD048093CE049093CF042091FE
:1022B000CE023091CF024091D0025091D102260F30
:1022C000371F481F591F2093D0043093D1044093E7
:1022D000D2045093D30482E090E09093D50480938D
:1022E000D4040E9439026093DD047093DE0480936D
:1022F000DF049093E0040895EF92FF920F931F93F1
:102300001CC02F5F3F4F4F4F5F4F2093CC04309343
:10231000CD044093CE045093CF0488EE93E0A0E028
:10232000B0E0E80EF91E0A1F1B1FE092DD04F092D8
:10233000DE040093DF041093E0040E943902E09071
:10234000DD04F090DE040091DF041091E0046E19CA
:102350007F09800B910B2091CC043091CD044091EA
:10236000CE045091CF04685E73408040904048F6A0
:102370008091D0049091D104A091D204B091D30463
:10238000281739074A075B07E8F0E091CA04F09183
:10239000CB043097B9F00995611571058105910558
:1023A00019F00E944F110EC020E030E08091D4045B
:1023B0009091D504892B11F021E030E03093D504C1
:1023C0002093D4046091CC047091CD048091CE040C
:1023D0009091CF041F910F91FF90EF9008959093EB
:1023E000CB048093CA048091CC049091CD04A09139
:1023F000CE04B091CF048093D0049093D104A093E5
:10240000D204B093D3040E947C110895CF93DF933C
:10241000DC01FC0120E030E08285807C828716822E
:1024200017821086118612821382148215821182FD
:102430001082255F3F4F3B962234310569F7AE5B32
:10244000BF4F1C92A254B040ED0120E030E04BE0C1
:1024500050E0249FF001259FF00D349FF00D1124D2
:10246000EA0FFB1F9285892F8F7061F0907E928713
:10247000198218821A821B821C821D821E821F8270
:10248000188619862F5F3F4F2B962630310509F7A6
:10249000DF91CF91089585EE94E00E940612089591
:1024A000DF92EF92FF920F931F937C0101E514E0FE
:1024B000C80168E670E00E943D07C80160E00E9424
:1024C000BF07C8010E94EF07C80168E670E047E057
:1024D00050E00E940C08C8010E945007282F2F7757
:1024E00022952F709AE0D92E2D9D900111248F7086
:1024F000820FF7018083C8010E945007282F229580
:102500002F702D9D900111248F70820FF701818310
:10251000C8010E945007282F2F7322952F702D9DE0
:10252000900111248F70820FF7018283C8010E94ED
:102530005007282F22952F702D9D900111248F7008
:10254000820FF7018383C8010E945007282F22952C
:102550002F702D9D900111248F70820FF7018483BD
:10256000C8010E945007282F22952F702D9D9001A1
:1025700011248F70820FF7018583C8010E945007D4
:10258000282F2F70225E82958F708D9DC00111249F
:10259000280FF70126831F910F91FF90EF90DF9096
:1025A00008950F931F93DF93CF93CDB7DEB727978F
:1025B0000FB6F894DEBF0FBECDBF8E010F5F1F4F69
:1025C000C8010E945012C8010E94731027960FB6CE
:1025D000F894DEBF0FBECDBFCF91DF911F910F9159
:1025E000089581E594E00E940F080895FC018CE3B2
:1025F00093E09183808373836283138612861186AE
:102600001086178216821582148214860895CF933D
:10261000DF93FC01DB01C285D385209739F4159641
:102620009C938E9314977387628713C0FE018085F5
:102630009185009711F0FC01FACFB187A08717961A
:10264000FC93EE9316978C819D8115969C938E93A7
:102650001497DF91CF910895FC01738362831386F1
:1026600012861186108617821682158214821486AD
:102670008AE293E09183808356874587308B278752
:1026800008950F931F93FC01738362831386128650
:10269000118610861782168215821482148688E1AC
:1026A00093E091838083568745870787108B218B22
:1026B000328B138A1F910F91089508951F93CF9322
:1026C000DF93EC01888199810E944F0C182F882399
:1026D00009F449C08C819D81892B09F444C08FED98
:1026E00093E060E071E00E94930613FF07C0EC8165
:1026F000FD81A081B1812D913C912BC012FF09C0B9
:10270000EC81FD81A081B18112962D913C911397AE
:1027100020C014FF09C0EC81FD81A081B181149615
:102720002D913C91159715C011FF09C0EC81FD81D9
:10273000A081B18116962D913C9117970AC010FF88
:102740000CC0EC81FD81A081B18118962D913C9146
:102750001997CF01BE01F9010995888199810E94DD
:102760004F0C8823D1F7DF91CF911F9108950F93DC
:102770001F93CF93DF93EC018B018C8580FF05C005
:10278000CB016FE071E00E9490066A817B81C801F5
:102790000E949006DF91CF911F910F910895CF93E2
:1027A000DF93EC018C819D81892BC1F18FED93E04A
:1027B00061E171E00E949006EC81FD81628173818C
:1027C0008FED93E00E94930688819981009709F12B
:1027D0000E94550E8881998160E040E00E94260E9B
:1027E000AC81BD81ED91FC91119768817981028462
:1027F000F385E02DCD010995AC81BD81ED91FC9172
:102800001197688179810484F585E02DCD010995C2
:102810000BC08FED93E060E271E004C08FED93E0B8
:102820006FE271E00E949306DF91CF910895CF93FC
:10283000DF93EC018FED93E060E571E00E94930679
:10284000EC81FD8182859385009729F09D838C839F
:10285000CE010E94CF13DF91CF910895CB010E944A
:1028600017140895DC011D96ED91FC911E97309789
:1028700011F009950895CB010E9417140895CB011A
:102880000E9417140895CF93DF93EC018FED93E02E
:1028900061E671E00E949306EC81FD81848195815F
:1028A000009729F09D838C83CE010E94CF13DF9186
:1028B000CF910895CB010E9443140895CF93DF93E5
:1028C000EC018FED93E06DE671E00E949306EC81E0
:1028D000FD8180859185009729F09D838C83CE01B1
:1028E0000E94CF13DF91CF910895CB010E945E1417
:1028F0000895CF93DF93EC018FED93E067E771E0EC
:102900000E949306EC81FD8186819781009729F0D2
:102910009D838C83CE010E94CF13DF91CF910895C8
:10292000CB010E9479140895FC0171836083538365
:102930004283558344830E94CF1308950F931F93BE
:10294000CF93DF938C01EB01CB0160E041E00E946B
:10295000260EF8018681978120853185892BC1F06B
:1029600082859385232B51F0892B21F0CE0162E8DB
:1029700071E01CC0CE0163E971E018C0892B21F021
:10298000CE0164EA71E012C0CE0165EB71E00EC0C9
:10299000232B71F0F80182859385892B21F0CE01DC
:1029A00066EC71E003C0CE0167ED71E00E94900615
:1029B000DF91CF911F910F910895CF93DF93EC0199
:1029C000662319F40E94140E19C0623061F063305E
:1029D00018F4613081F405C0633039F0643059F483
:1029E00006C061E005C063E003C064E001C067E0C9
:1029F00041E00E94260ECE010E940A0EDF91CF9187
:102A000008950F931F93CF93DF93EC018B018B8974
:102A1000882319F481E08B8B05C01B8AED85FE8528
:102A2000CE010995F801808191816B890E94DD14A6
:102A3000DF91CF911F910F910895FC01DB018389F4
:102A4000882359F08F5F838B853010F081E0838B72
:102A50008D919C9163890E94DD140895FC01DB0136
:102A60008389882361F08150838B882311F484E06B
:102A7000838B8D919C9163890E94DD140895CB0115
:102A80000E94431408958F929F92AF92BF92CF926B
:102A9000DF92EF92FF920F931F93DF93CF93CDB707
:102AA000DEB727970FB6F894DEBF0FBECDBF5C012F
:102AB0004B01DC011F966D917D918D919C915297F8
:102AC000AE014F5F5F4F0E943F0FF5018389813058
:102AD00039F48B81833010F0815050C08CE04EC0AF
:102AE000823061F48A8190E09C012A50304037FFA7
:102AF00003C09C012E5C3F4F2A8341C08330D1F537
:102B00002A81822F6AE00E943C1AC92EDD24089493
:102B1000C108D108FFEFCF16FFEFDF0619F489E0F7
:102B2000C82ED12C822F6AE00E943C1A90E0AA277E
:102B300097FDA095BA2FBC01CD010E94D9180E9423
:102B4000141920E030E040E251E40E94BA197B0100
:102B50008C01B601882777FD8095982F0E94D9189F
:102B60009B01AC01C801B7010E9447180E94AB1835
:102B70006A8305C0843019F48B81845F8B83CE0116
:102B800001960E947310D5011F966D937D938D93CE
:102B90009C935297ED91FC91D4016D917C910484AA
:102BA000F585E02DC5010995F40180819181D5015C
:102BB00053966C910E94DD1427960FB6F894DEBFF1
:102BC0000FBECDBFCF91DF911F910F91FF90EF907E
:102BD000DF90CF90BF90AF909F908F9008958F928D
:102BE0009F92AF92BF92CF92DF92EF92FF920F939C
:102BF0001F93DF93CF93CDB7DEB727970FB6F89427
:102C0000DEBF0FBECDBF5C014B01DC011F966D9195
:102C10007D918D919C915297AE014F5F5F4F0E94C5
:102C20003F0FF5019389913041F48B818F5F8B8346
:102C30008D3008F44DC09B834BC0923051F49A8183
:102C4000892F865F8A838C3308F442C092539A831B
:102C50003FC09330C1F52A81822F6AE00E943C1A5E
:102C6000C92EDD240894C11CD11CFAE0CF16D10472
:102C700014F0CC24DD24822F6AE00E943C1A90E0FC
:102C8000AA2797FDA095BA2FBC01CD010E94D918A3
:102C90000E94141920E030E040E251E40E94BA1989
:102CA0007B018C01B601882777FD8095982F0E94C3
:102CB000D9189B01AC01C801B7010E9447180E94B6
:102CC000AB186A8305C0943019F48B81845F8B83C1
:102CD000CE0101960E947310D5011F966D937D93CE
:102CE0008D939C935297ED91FC91D4016D917C91C1
:102CF0000484F585E02DC5010995F4018081918159
:102D0000D50153966C910E94DD1427960FB6F89466
:102D1000DEBF0FBECDBFCF91DF911F910F91FF900E
:102D2000EF90DF90CF90BF90AF909F908F900895DD
:102D3000CF92DF92EF92FF920F931F93CF93DF9387
:102D40006C01F62EE72E862F972F60E041E00E945F
:102D5000260EF60167857089818992890E946D101F
:102D60008C018D30910514F4EC0102C0EC012C971C
:102D7000CA30D10534F48F2D9E2D68EE71E00E948B
:102D800090068F2D9E2DBE014AE050E00E947D06E8
:102D90008F2D9E2D6AEE71E00E949006F6016785E8
:102DA0007089818992890E946710EC018A309105AF
:102DB00034F48F2D9E2D68EE71E00E9490068F2DC9
:102DC0009E2DBE014AE050E00E947D060D301105A7
:102DD0002CF08F2D9E2D6CEE71E004C08F2D9E2D5A
:102DE00060EF71E00E9490068F2D9E2D64EF71E0E0
:102DF0000E949006DF91CF911F910F91FF90EF906D
:102E0000DF90CF900895089589E295E00E942E0CFE
:102E100086E495E00E945D13089586E495E00E94A3
:102E20005E130895AF92BF92CF92DF92EF92FF921E
:102E30000F931F93CF93DF938FED93E040E855E21C
:102E400060E070E00E9483038FED93E06DEF71E02E
:102E50000E94930689E295E060E142E020E00E9452
:102E60005D0E89E295E00E94550E8DE090E00E9493
:102E70003A07182F092F63E072E00E94F6121093B0
:102E80004D0500934E058DE090E00E943A07182F03
:102E9000092F64E172E00E94F61281E190E00E9445
:102EA0003A077C0164E272E04CE158E120E030E056
:102EB0000E942C1381E190E00E943A07EC0164E348
:102EC00072E04CE158E121E030E00E942C13809147
:102ED0004D0590914E05612F702F0E940713812F91
:102EE000902FB7010E940713812F902FBE010E94DF
:102EF00007138DE594E060E070E00E941A0880936B
:102F00004C05823010F010924C0580914C058823BE
:102F100029F4F70184858160848703C08C858160F2
:102F20008C878DE090E00E943A07B82EA92E63E4CA
:102F300072E00E94F61280914D0590914E056B2D26
:102F40007A2D0E9407138DE090E00E943A07F82E38
:102F5000E92E6EE472E00E94F6128B2D9A2D6F2DF1
:102F60007E2D0E94071384E190E00E943A07D82E3C
:102F7000C92E6FE572E043E057E100E010E020E089
:102F800030E00E9441138F2D9E2D6D2D7C2D0E94CF
:102F900007138DE090E00E943A07182F092F6AE688
:102FA00072E00E94F6128B2D9A2D612F702F0E94D5
:102FB00007138DE090E00E943A07182F092F6FE762
:102FC00072E00E94F6128B2D9A2D612F702F0E94B5
:102FD000071340914D0550914E0586E495E069E256
:102FE00075E00E94941486E495E00E94CF1381ED71
:102FF00092E10E94EF110E944A11029729F08FED91
:1030000093E06FE872E004C08FED93E06BEA72E04A
:103010000E949306DF91CF911F910F91FF90EF9047
:10302000DF90CF90BF90AF9008950E9451020E9410
:1030300012170E940D17FDCFCF93DF93EC018C8503
:1030400080FD21C04F8540934C058DE594E060E004
:1030500070E00E9421088C8581608C87EC81FD8165
:103060000284F385E02D09C0EC17FD0719F0848573
:103070008E7F84870084F185E02D3097A9F786E460
:1030800095E00E94CF13DF91CF9108955058BB2750
:10309000AA270ED01EC10FD130F014D120F031F488
:1030A0009F3F11F41EF404C10EF4E095E7FBCFC07E
:1030B000E92F20D180F3BA176207730784079507B9
:1030C00018F071F49EF54FC10EF4E0950B2EBA2F57
:1030D000A02D0B01B90190010C01CA01A00111241E
:1030E000FF27591B99F0593F50F4503E68F11A16CA
:1030F000F040A22F232F342F4427585FF3CF46955B
:1031000037952795A795F0405395C9F77EF41F167C
:10311000BA0B620B730B840BBAF09150A1F0FF0F46
:10312000BB1F661F771F881FC2F70EC0BA0F621F32
:10313000731F841F48F4879577956795B795F79522
:103140009E3F08F0B3CF9395880F08F09927EE0FB4
:10315000979587950895D6D088F09F5790F0B92F0E
:103160009927B751A0F0D1F0660F771F881F991FDC
:103170001AF0BA95C9F712C0B13081F0F4D0B1E0BD
:103180000895F1C0672F782F8827B85F39F0B93FCD
:10319000CCF3869577956795B395D9F73EF49095DE
:1031A0008095709561957F4F8F4F9F4F0895E8945C
:1031B00009C097FB3EF490958095709561957F4F7F
:1031C0008F4F9F4F9923A9F0F92F96E9BB2793952D
:1031D000F695879577956795B795F111F8CFFAF43D
:1031E000BB0F11F460FF1BC06F5F7F4F8F4F9F4F6E
:1031F00016C0882311F096E911C0772321F09EE8CC
:10320000872F762F05C0662371F096E8862F70E031
:1032100060E02AF09A95660F771F881FDAF7880F0B
:103220009695879597F9089587D080F09F3740F459
:1032300091110EF099C060E070E080E89FEB089576
:1032400026F41B16611D711D811D07C021C097F951
:103250009F6780E870E060E00895882371F4772329
:1032600021F09850872B762F07C0662311F49927F9
:103270000DC09051862B70E060E02AF09A95660FA1
:10328000771F881FDAF7880F9695879597F9089525
:103290009F3F49F0915028F4869577956795B795AB
:1032A0009F5F80389F4F880F9695879597F908956F
:1032B0009FEF80EC089500240A941616170618064E
:1032C0000906089500240A9412161306140605062A
:1032D0000895092E0394000C11F4882352F0BB0FBB
:1032E00040F4BF2B11F460FF04C06F5F7F4F8F4F1E
:1032F0009F4F089557FD9058440F551F59F05F3F59
:1033000071F04795880F97FB991F61F09F3F79F007
:1033100087950895121613061406551FF2CF469589
:10332000F1DF08C0161617061806991FF1CF86950B
:103330007105610508940895E5DFA0F0BEE7B917AF
:1033400088F4BB279F3860F41616B11D672F782FBD
:103350008827985FF7CF869577956795B11D9395E8
:103360009639C8F30895E894BB2766277727CB01E1
:1033700097F908950BD0ADCF9EDF28F0A3DF18F0AA
:10338000952309F064CF94CF1124EECFB3DFA0F3DF
:10339000959FD1F3950F50E0551F629FF001729FEA
:1033A000BB27F00DB11D639FAA27F00DB11DAA1F09
:1033B000649F6627B00DA11D661F829F2227B00D56
:1033C000A11D621F739FB00DA11D621F839FA00DE1
:1033D000611D221F749F3327A00D611D231F849F31
:1033E000600D211D822F762F6A2F11249F57504088
:1033F0008AF0E1F088234AF0EE0FFF1FBB1F661F23
:10340000771F881F91505040A9F79E3F510570F0DB
:103410001ECFAACF5F3FECF3983EDCF386957795FD
:103420006795B795F795E7959F5FC1F7FE2B880FD6
:10343000911D9695879597F90895629FD001739F86
:10344000F001829FE00DF11D649FE00DF11D929F40
:10345000F00D839FF00D749FF00D659FF00D99277F
:10346000729FB00DE11DF91F639FB00DE11DF91FA3
:10347000BD01CF0111240895991B79E004C0991F63
:10348000961708F0961B881F7A95C9F780950895BE
:10349000AA1BBB1B51E107C0AA1FBB1FA617B7077A
:1034A00010F0A61BB70B881F991F5A95A9F7809596
:1034B0009095BC01CD01089597FB092E07260AD0EF
:1034C00077FD04D0E5DF06D000201AF470956195F1
:1034D0007F4F0895F6F7909581959F4F0895A1E24B
:1034E0001A2EAA1BBB1BFD010DC0AA1FBB1FEE1F7E
:1034F000FF1FA217B307E407F50720F0A21BB30BC9
:10350000E40BF50B661F771F881F991F1A9469F744
:1035100060957095809590959B01AC01BD01CF01A0
:103520000895EE0FFF1F0590F491E02D0994F89493
:02353000FFCFCB
:10353200627574746F6E2070726573736564002AAD
:10354200006174206D656E75206974656D3A2000A6
:103552006572726F72202D206E6F204C434400659D
:1035620072726F72202D206E6F2063757272656E9B
:1035720074206974656D20746F207072696E7400B6
:10358200676F746F206669727374206368696C6414
:1035920000676F746F20706172656E7400676F747C
:1035A2006F206E65787400676F746F207072696F38
:1035B2007200202020202020205B55702F446F773E
:1035C2006E5D00205B55702F446F776E7C456E7484
:1035D20065725D0020202020202020202020202035
:1035E2005B55705D002020202020205B55707C45BB
:1035F2006E7465725D002020202020202020202073
:103602005B446F776E5D00202020205B446F776EF5
:103612007C456E7465725D0030003A0020504D00AA
:1036220020414D00205B456E7465725D00736574C8
:103632007570004368617267696E6720456E6162EA
:103642006C6564004368617267696E67204D6F64E0
:1036520065203E004E6F726D616C20636861726717
:10366200696E670054696D65642063686172676999
:103672006E670053657474696E6773203E0053650C
:10368200742073746172742074696D65203E0053F6
:10369200746172742074696D650053657420746975
:1036A2006D6572206475726174696F6E203E00539D
:1036B200657420646174652F74696D65203E0055E0
:1036C2006E61626C6520746F2073796E6320776916
:1036D2007468207468652052544300525443206831
:1036E20061732073657420746865207379737465DF
:1036F2006D2074696D6500200053050000FF2C01E8
:103702000000000000007504520509043A041A047E
:10371200630400000000100500000000BF078E07D0
:10372200470750076507760700000000000E5205A4
:1037320000004000140054001F1C1F1E1F1E1F1FEC
:103742001E1F1E1F00000000EF1543152E151D152C
:103752000115B713981600000000901475145A143E
:103762003F143214B7139E14000000009014751415
:0A3772005A143F142E14B7139E14CE
:00000001FF
