:100000000C9466000C9495010C94C2010C948E0023
:100010000C948E000C948E000C948E000C94990617
:100020000C948E000C948E000C948E000C948E0018
:100030000C948E000C948E000C948E000C948E0008
:100040000C94EF010C948E000C94F6020C942A038D
:100050000C948E000C948E000C948E000C948E00E8
:100060000C9471080C948E000000000024002700FE
:100070002A0000000000250028002B0000000000DE
:1000800023002600290004040404040404040202DA
:100090000202020203030303030301020408102007
:1000A0004080010204081020010204081020000012
:1000B0000007000201000003040600000000000029
:1000C00000000200A104F1043207421011241FBEF7
:1000D000CFEFD8E0DEBFCDBF12E0A0E0B1E0EEE9A7
:1000E000F3E202C005900D92AC3BB107D9F714E0E2
:1000F000ACEBB2E001C01D92A23AB107E1F710E00B
:10010000CCECD0E004C02297FE010E94C911C43C8F
:10011000D107C9F70E9431110C9492010C94000090
:10012000CF93DF93BC018230910510F462E070E060
:10013000A091A004B091A104ED01E0E0F0E040E066
:1001400050E021C0888199818617970769F48A81D8
:100150009B81309719F09383828304C09093A1040C
:100160008093A004FE0134C06817790738F4411564
:10017000510519F08417950708F4AC01FE018A8136
:100180009B819C01E9012097E9F641155105A9F1F0
:10019000CA01861B970B049708F4BA01E0E0F0E06F
:1001A0002AC08D919C91119784179507F9F46417D3
:1001B000750781F412968D919C911397309719F0E1
:1001C0009383828304C09093A1048093A004FD01D3
:1001D00032964CC0CA01861B970BFD01E80FF91F30
:1001E0006193719302978D939C9340C0FD0182812E
:1001F00093819C01D9011097A1F680919E04909162
:100200009F04892B41F48091810290918202909306
:100210009F0480939E044091830250918402411573
:10022000510541F44DB75EB780917F0290918002F5
:10023000481B590B20919E0430919F04CA01821BD8
:10024000930B8617970780F0AB014E5F5F4F8417C3
:10025000950750F0420F531F50939F0440939E0404
:10026000F9016193719302C0E0E0F0E0CF01DF910A
:10027000CF910895CF93DF93009709F450C0EC011C
:1002800022971B821A82A091A004B091A10410971A
:1002900009F140E050E0AC17BD0708F1BB83AA8329
:1002A000FE0121913191E20FF31FAE17BF0779F4E0
:1002B0008D919C911197280F391F2E5F3F4F3983E5
:1002C000288312968D919C9113979B838A83411565
:1002D000510571F4D093A104C093A00420C01296DC
:1002E0008D919C911397AD01009711F0DC01D3CF54
:1002F000FA01D383C28321913191E20FF31FCE170C
:10030000DF0769F488819981280F391F2E5F3F4FDD
:10031000FA01318320838A819B8193838283DF91D9
:10032000CF910895F8940C94CD111F920F920FB6AF
:100330000F9211242F933F934F935F936F937F936B
:100340008F939F93AF93BF93EF93FF938091BC02E2
:100350009091BD02892B29F0E091BC02F091BD0281
:100360000995FF91EF91BF91AF919F918F917F91EF
:100370006F915F914F913F912F910F900FBE0F9012
:100380001F9018951F920F920FB60F9211242F9362
:100390003F934F935F936F937F938F939F93AF930D
:1003A000BF93EF93FF938091BE029091BF02892B80
:1003B00029F0E091BE02F091BF020995FF91EF9103
:1003C000BF91AF919F918F917F916F915F914F916D
:1003D0003F912F910F900FBE0F901F9018951F9275
:1003E0000F920FB60F9211242F933F938F939F93E9
:1003F000AF93BF938091C4029091C502A091C602B1
:10040000B091C7023091C8020196A11DB11D232FE2
:100410002D5F2D3720F02D570196A11DB11D209382
:10042000C8028093C4029093C502A093C602B09301
:10043000C7028091C0029091C102A091C202B09106
:10044000C3020196A11DB11D8093C0029093C10209
:10045000A093C202B093C302BF91AF919F918F91BD
:100460003F912F910F900FBE0F901F9018950197FD
:1004700039F0880F991F880F991F02970197F1F79C
:100480000895789484B5826084BD84B5816084BD0C
:1004900085B5826085BD85B5816085BDEEE6F0E0FD
:1004A000808181608083E1E8F0E010828081826059
:1004B0008083808181608083E0E8F0E080818160DA
:1004C0008083E1EBF0E0808184608083E0EBF0E00A
:1004D000808181608083EAE7F0E0808184608083AE
:1004E0008081826080838081816080838081806858
:1004F00080831092C1000895482F50E0CA018656AB
:100500009F4FFC0124914A575F4FFA018491882341
:10051000C1F0E82FF0E0EE0FFF1FE859FF4FA59163
:10052000B491662341F49FB7F8948C91209582236F
:100530008C939FBF08959FB7F8948C91822B8C93D6
:100540009FBF0895482F50E0CA0182559F4FFC017C
:100550002491CA0186569F4FFC0194914A575F4FE0
:10056000FA013491332309F440C0222351F123309E
:1005700071F0243028F42130A1F0223011F514C09C
:100580002630B1F02730C1F02430D9F404C0809176
:1005900080008F7703C0809180008F7D80938000E2
:1005A00010C084B58F7702C084B58F7D84BD09C02B
:1005B0008091B0008F7703C08091B0008F7D8093D1
:1005C000B000E32FF0E0EE0FFF1FEE58FF4FA591B4
:1005D000B4912FB7F894662321F48C9190958923D8
:1005E00002C08C91892B8C932FBF08951F920F927C
:1005F0000FB60F9211242F933F934F938F939F9396
:10060000EF93FF934091C6002091090330910A03B4
:100610002F5F3F4F2F73307080910B0390910C032D
:100620002817390759F0E0910903F0910A03E753BD
:10063000FD4F408330930A0320930903FF91EF910C
:100640009F918F914F913F912F910F900FBE0F90DF
:100650001F9018951F920F920FB60F9211242F938F
:100660003F934F935F936F937F938F939F93AF933A
:10067000BF93EF93FF9320914D0330914E038091F0
:100680004F03909150032817390731F48091C1002E
:100690008F7D8093C10016C0E0914F03F09150030D
:1006A000E35FFC4F408180914F039091500301968E
:1006B00060E470E00E9492119093500380934F0386
:1006C0004093C600FF91EF91BF91AF919F918F91A1
:1006D0007F916F915F914F913F912F910F900FBE3E
:1006E0000F901F901895AF92BF92DF92EF92FF92FA
:1006F0000F931F93CF93DF93EC017A018B01DD24DD
:10070000403081EE580780E0680780E0780711F0FC
:10071000DD24D39491E0A92EB12CEC89FD89DD2054
:1007200069F0C5010E8C02C0880F991F0A94E2F788
:10073000808360E079E08DE390E005C0108260E89E
:1007400074E88EE190E0A80197010E94A511215064
:10075000304040405040569547953795279580E169
:100760002030380720F0DD2011F0DD24D6CFE889D5
:10077000F9893083EA89FB892083EE89FF894081EA
:1007800021E030E0C9010A8C02C0880F991F0A9449
:10079000E2F7482B4083EE89FF894081C9010B8C29
:1007A00002C0880F991F0A94E2F7482B4083EE8914
:1007B000FF894081C9010C8C02C0880F991F0A94DF
:1007C000E2F7482B4083EE89FF8980810D8C02C0BF
:1007D000220F331F0A94E2F7209528232083DF910C
:1007E000CF911F910F91FF90EF90DF90BF90AF904E
:1007F0000895DC011C96ED91FC911D97E05CFF4F84
:100800002191319180819181281B390B2F73307098
:10081000C9010895DC011C96ED91FC911D97E05CE7
:10082000FF4F20813181E054F040DF01AE5BBF4FCC
:100830008D919C9111972817390719F42FEF3FEFED
:1008400007C08D919C91E80FF91F8081282F30E01F
:10085000C9010895DC011C96ED91FC911D97E05CA7
:10086000FF4F20813181E054F040DF01AE5BBF4F8C
:100870008D919C9111972817390719F42FEF3FEFAD
:1008800010C08D919C911197E80FF91F20818D91D7
:100890009C91119701968F73907011969C938E93F3
:1008A00030E0C9010895FC0186859785DC01A05CD4
:1008B000BF4FFC01EE5BFF4F2D913C911197808162
:1008C000918128173907C1F70895CF93DF93EC0181
:1008D000462FEE85FF85E05CFF4F80819181E054DB
:1008E000F040019660E470E00E9492119C01DF01EB
:1008F000AE5BBF4F8D919C91119728173907D1F3AB
:10090000E05CFF4F80819181E054F040E80FF91FD7
:100910004083EE85FF85E05CFF4F31832083EE89C5
:10092000FF89208181E090E00D8C02C0880F991F23
:100930000A94E2F7282B208381E090E0DF91CF91A9
:100940000895109254031092530388EE93E0A0E0B0
:10095000B0E08093550390935603A0935703B09350
:1009600058038AE892E0909352038093510389ECF4
:1009700092E090935E0380935D038DE093E090930B
:10098000600380935F0385EC90E090936203809313
:10099000610384EC90E0909364038093630380ECA4
:1009A00090E0909366038093650381EC90E09093D0
:1009B00068038093670386EC90E090936A038093CA
:1009C000690384E080936B0383E080936C0387E08A
:1009D00080936D0385E080936E0381E080936F03C5
:1009E00008958AE992E090937103809370031092C6
:1009F000720310927303109274031092750308959A
:100A00008F929F92AF92BF92CF92DF92EF92FF921E
:100A10000F931F93CF93DF934C016B017C01AA24AA
:100A2000BB24C0E0D0E0C601F70162814AE050E09B
:100A30000E941B068C01C6016EE20E946C05080F25
:100A4000191FA00EB11E21960894E11CF11CC330A1
:100A5000D10549F7C601F40165814AE050E00E94E2
:100A60001B069501280F391FC901DF91CF911F91F6
:100A70000F91FF90EF90DF90CF90BF90AF909F903D
:100A80008F900895CF92DF92EF92FF920F931F9372
:100A9000CF93DF937C016B018A01C0E0D0E00FC0EF
:100AA000D6016D916D01D701ED91FC910190F0811E
:100AB000E02DC7010995C80FD91F0150104001153D
:100AC000110571F7CE01DF91CF911F910F91FF902A
:100AD000EF90DF90CF900895DC01ED91FC910190B3
:100AE000F081E02D09950895EF92FF920F931F93E7
:100AF0008C01DC01ED91FC910190F081E02D6DE025
:100B000009957C01D801ED91FC910190F081E02DD7
:100B1000C8016AE009959C012E0D3F1DC9011F9176
:100B20000F91FF90EF900895CF93DF93DB010D902D
:100B30000020E9F71197A61BB70BEC01E881F981BA
:100B40000280F381E02DAD010995DF91CF910895E9
:100B50004F925F927F928F929F92AF92BF92CF926D
:100B6000DF92EF92FF920F931F93DF93CF93CDB756
:100B7000DEB7A1970FB6F894DEBF0FBECDBF2C0134
:100B8000742ECB01223008F42AE019A231E2C32EE0
:100B9000D12CCC0EDD1E822E9924AA24BB24672DD5
:100BA000752FA50194010E94A51179018A01C80140
:100BB000B701A50194010E945F11472D461B0894BF
:100BC000C108D1084A3014F4405D01C0495CF60107
:100BD0004083E114F1040105110521F07E2C5F2D05
:100BE000C801DDCFC201B6010E949405A1960FB6DF
:100BF000F894DEBF0FBECDBFCF91DF911F910F9153
:100C0000FF90EF90DF90CF90BF90AF909F908F902C
:100C10007F905F904F900895DC012115310541F4DC
:100C2000ED91FC910190F081E02D642F09950895DC
:100C30000E94A8050895EF92FF920F931F939A01C7
:100C4000E62EFF2400E010E0B801A7010E940C0688
:100C50001F910F91FF90EF900895CF92DF92EF9246
:100C6000FF920F931F936C01E62E9A01FF2400E080
:100C700010E0B801A7010E940C068C01C6010E9479
:100C80007405080F191FC8011F910F91FF90EF9075
:100C9000DF90CF9008950E9494050895EF92FF92FF
:100CA0000F931F937C010E9494058C01C7010E9441
:100CB0007405080F191FC8011F910F91FF90EF9045
:100CC0000895813041F0813018F08230D1F409C0AC
:100CD00010926E00089580916F008D7F80936F0059
:100CE0000895809170008D7F8093700081E08093E3
:100CF000B0008091B100887F84608093B100109231
:100D0000B30008951F93182F80918502811711F069
:100D10009FEF06C0E2ECF0E094918FEF80938502A4
:100D2000892F0E946106812F60E00E94A2021F911C
:100D300008951F920F920FB60F9211242F933F9395
:100D40004F935F936F937F938F939F93AF93BF93D3
:100D5000EF93FF938091760390917703A0917803AE
:100D6000B09179030097A105B10551F1E0917A03A3
:100D7000F0917B03808190917C038927808380910F
:100D8000760390917703A0917803B09179031816B8
:100D900019061A061B06C4F4809176039091770316
:100DA000A0917803B09179030197A109B1098093CB
:100DB000760390937703A0937803B093790304C0EC
:100DC000809185020E948206FF91EF91BF91AF91C1
:100DD0009F918F917F916F915F914F913F912F9153
:100DE0000F900FBE0F901F9018950E9490000895CD
:100DF00081E08093C20360939F031092C00310921E
:100E0000C103089520919E0330E080919D03281B2B
:100E10003109C901089540919D0380919E034817AF
:100E200018F02FEF3FEF0AC0E42FF0E0E358FC4F3B
:100E30008081282F30E04F5F40939D03C9010895C2
:100E4000E0919D0380919E03E81718F0EFEFFFEF0C
:100E500006C0F0E0E358FC4F8081E82FF0E0CF01BE
:100E6000089508951092C6031092C50388EE93E08A
:100E7000A0E0B0E08093C7039093C803A093C90398
:100E8000B093CA0380EA92E09093C4038093C303B3
:100E90000895CF92DF92EF92FF920F931F93CF931B
:100EA000DF937C016B018A018091C2038823A1F04A
:100EB000C0E0D0E00DC0D701ED91FC91D601AC0FA0
:100EC000BD1F0190F081E02DC7016C91099521961D
:100ED000C017D10780F304C0CB01642F0E945608CD
:100EE000C801DF91CF911F910F91FF90EF90DF909C
:100EF000CF900895DF93CF930F92CDB7DEB7FC016B
:100F000069838091C2038823C9F08091C103803234
:100F100038F081E090E09383828320E030E015C0D8
:100F20008091C003E82FF0E0E056FC4F9981908358
:100F30008F5F8093C0038093C10305C0CE010196EB
:100F400061E00E94560821E030E0C9010F90CF9186
:100F5000DF91089580919F0360EA73E04091C1039F
:100F600021E00E9413081092C0031092C103109256
:100F7000C2030895413208F040E2862F6DE773E026
:100F80000E94DC0710929D0380939E0308950E94A7
:100F9000BA07089510929D0310929E031092C00309
:100FA0001092C1030E94EC090895F999FECF72BD19
:100FB00061BDF89A80B50895982F413210F040E055
:100FC00030C08091D0038823E1F781E08093D00383
:100FD0008FEF80933B041092F60341504093F70348
:100FE0004F5F990F91609093D10385EE8093BC0081
:100FF0008091D0038130E1F38091F603841710F4DF
:101000004091F60320E030E00AC0FB01E20FF31F3D
:10101000D901AA52BC4F8C9180832F5F3F4F241778
:10102000A0F3842F08951F93582F122F413210F0F0
:1010300081E03AC08091D0038823E1F782E0809379
:10104000D0038FEF80933B041092F6034093F70395
:10105000A6EDB3E0FB0102C081918D938E2F861B1C
:101060008417D0F3852F90E0880F991F8093D103C8
:1010700085EE8093BC00112321F08091D003823053
:10108000E1F380913B048F3F11F480E00DC080912B
:101090003B04803211F482E007C080913B0480332E
:1010A00011F084E001C083E01F910895482F613260
:1010B00010F081E008958091D003843011F082E037
:1010C000089560931904A8EFB3E0842F9C01F901FF
:1010D00002C081918D938E2F841B8617D0F380E000
:1010E00008951F920F920FB60F9211242F933F93E2
:1010F0004F935F936F937F938F939F93AF93BF9320
:10110000EF93FF938091B90090E0887F90708036D4
:10111000910509F4DCC081369105CCF58832910542
:1011200009F47BC089329105B4F48031910509F44A
:101130006FC0813191053CF4009709F431C10897E3
:1011400009F039C165C08831910509F466C08097FE
:1011500009F031C17DC08034910509F49FC081340C
:10116000910544F48033910509F47DC0C89709F0D6
:1011700022C184C08035910509F484C08835910569
:1011800009F491C08834910509F015C198C08839D7
:10119000910509F4FDC089399105ECF48837910572
:1011A00009F495C0893791054CF48836910509F406
:1011B0008EC08037910509F0FEC089C0883891053E
:1011C00009F4E6C08039910509F487C0803891059B
:1011D00009F0F1C082C0803B910509F4B0C0813BA9
:1011E00091054CF4803A910509F489C0883A91053B
:1011F00009F0E1C0A4C0803C910509F4CDC0883C51
:10120000910509F4C9C0883B910509F0D4C0ACC070
:101210008091D1038093BB00B9C09091F603809177
:10122000F703981768F49091F603E92FF0E0EA527B
:10123000FC4F80818093BB009F5F9093F603A6C014
:1012400085ED8093BC008091BC0084FDFCCFB1C0D3
:1012500080E280933B0485ED8093BC008091BC00CC
:1012600084FDFCCFA6C080E380933B0485ED809392
:10127000BC008091BC0084FDFCCF9BC088E38093C0
:101280003B048AC08091F6039091BB00E82FF0E008
:10129000EA52FC4F90838F5F8093F6039091F603A0
:1012A0008091F70371C08091F6039091BB00E82F05
:1012B000F0E0EA52FC4F90838F5F8093F60385ED58
:1012C0008093BC008091BC0084FDFCCF72C083E0A1
:1012D0008093D00310923A0459C080913A0480322E
:1012E00008F056C080913A049091BB00E82FF0E0DE
:1012F000E65EFB4F90838F5F80933A0447C08091F6
:101300003A04803230F4E0913A04F0E0E65EFB4FBC
:10131000108285ED8093BC008091BC0084FDFCCFE1
:101320001092D00360913A04E091D403F091D50378
:101330008AE194E070E0099510923A042DC084E0AF
:101340008093D0031092180410921904E091D203F4
:10135000F091D303099580911904882329F481E041
:10136000809319041092F80390911804E92FF0E08B
:10137000E850FC4F80818093BB009F5F90931804DE
:101380009091180480911904981710F485EC01C00D
:1013900085E88093BC000FC085EC8093BC0009C039
:1013A00010923B0485ED8093BC008091BC0084FDCD
:1013B000FCCF1092D003FF91EF91BF91AF919F911D
:1013C0008F917F916F915F914F913F912F910F90EE
:1013D0000FBE0F901F9018951092D00382E161E02C
:1013E0000E94A20283E161E00E94A202E9EBF0E028
:1013F00080818E7F808380818D7F808388E480934D
:10140000B80085E48093BC000895682F83EC93E0D6
:101410000E947A070895EF92FF920F931F93FC01A9
:10142000F62EE72E03EC13E060816062C80170E0E5
:101430000E94F80682E10E94050A8F2D0E94050A8B
:101440008E2D0E94050AC8010E94AA071F910F91C4
:10145000FF90EF9008950F931F93CF93DF93EC01CC
:10146000162F603110F080E028C0683010F402E1DF
:1014700002C0185003E16881606283EC93E070E081
:101480000E94F806802F0E94050A83EC93E00E94D8
:10149000AA076881606283EC93E070E041E050E06D
:1014A0000E94C70783EC93E00E940B0790E002C004
:1014B000959587951A95E2F78170DF91CF911F91ED
:1014C0000F910895FF920F931F93CF93DF93EC0139
:1014D000162FF42E603108F04AC0683010F40CE08A
:1014E00002C018500DE06881606283EC93E070E008
:1014F0000E94F806802F0E94050A83EC93E00E9468
:10150000AA076881606283EC93E070E041E050E0FC
:101510000E94C70783EC93E00E940B07282F81E00D
:10152000F81651F481E090E002C0880F991F1A95D7
:10153000E2F7122F182B0AC081E090E002C0880F5A
:10154000991F1A95E2F7182F10951223688160628F
:1015500083EC93E070E00E94F806802F0E94050A59
:10156000812F0E94050A83EC93E00E94AA07DF9175
:10157000CF911F910F91FF900895EF92FF920F93DB
:101580001F93CF93DF93EC01162FE42E603108F008
:101590004EC0683020F492E1F92E04E104C01850E6
:1015A00083E1F82E05E16881606283EC93E070E0EE
:1015B0000E94F806802F0E94050A83EC93E00E94A7
:1015C000AA076881606283EC93E070E041E050E03C
:1015D0000E94C70783EC93E00E940B07282F81E04D
:1015E000E81651F481E090E002C0880F991F1A9527
:1015F000E2F7122F182B0AC081E090E002C0880F9A
:10160000991F1A95E2F7182F1095122368816062CE
:1016100083EC93E070E00E94F8068F2D0E94050A8B
:10162000812F0E94050A83EC93E00E94AA07DF91B4
:10163000CF911F910F91FF90EF900895EF92FF923D
:101640000F931F938C0123ECE22E23E0F22EFC017A
:1016500060816062C70170E00E94F80682E10E942A
:10166000050AC7010E94AA07F80160816062C701EC
:1016700070E042E050E00E94C707C7010E940B07DC
:10168000082FC7010E940B07382F20E010E0022B23
:10169000132BC8011F910F91FF90EF900895FF92B7
:1016A0000F931F93CF93DF93EC01162FF42E60312D
:1016B00008F049C0683010F400E002C0185001E0A2
:1016C0006881606283EC93E070E00E94F806802FEE
:1016D0000E94050A83EC93E00E94AA076881606279
:1016E00083EC93E070E041E050E00E94C70783EC98
:1016F00093E00E940B07282FFF2051F481E090E037
:1017000002C0880F991F1A95E2F7122F182B0AC0F2
:1017100081E090E002C0880F991F1A95E2F7182F18
:10172000109512236881606283EC93E070E00E9460
:10173000F806802F0E94050A812F0E94050A83EC7B
:1017400093E00E94AA07DF91CF911F910F91FF9024
:101750000895CF93DF93EC01683008F067E0688369
:1017600083EC93E00E94CA076881606283EC93E097
:1017700070E00E94F80680E00E94050A8FEF0E9448
:10178000050A83EC93E00E94AA076881606283ECFB
:1017900093E070E00E94F80681E00E94050A8FEF56
:1017A0000E94050A83EC93E00E94AA07DF91CF9183
:1017B000089560E00E94A90B0895FC011382128233
:1017C00080EB92E091838083138E148A8FE0848370
:1017D0008EE085838DE086838CE087838BE0808735
:1017E0008AE0818789E08287178681E0808B82E0AA
:1017F000818B83E0828B84E0838B0895CF92DF928C
:10180000FF920F931F93CF93DF932CE1C22ED12C25
:10181000C80ED91E8C018FE1F82EC0E0D0E0C601C1
:10182000F80167850E942B0A90E00C2E02C0880FF9
:10183000991F0A94E2F78095F82221960F5F1F4FB7
:10184000C530D10561F78F2DDF91CF911F910F9199
:10185000FF90DF90CF900895FC01838D8F3F29F09A
:10186000CF014C960E944F0B0895862F642F0E9443
:101870007C020895CF92DF92EF92FF920F931F9315
:10188000062FECE1CE2ED12CC80ED91E10E0A801F7
:10189000569547955695479561E0E62EF12C4E25D5
:1018A0005F254170C60168E00E94BD0AA8015695F7
:1018B00047954E255F254170C60167E00E94BD0A2D
:1018C0000E251F250170C60166E0402F0E94BD0A4B
:1018D0001F910F91FF90EF90DF90CF900895FC0142
:1018E000838D8F3F29F0CF014C960E94BD0A089549
:1018F000862F642F0E94A20208950F931F938C01DC
:10190000F801668140E00E946F0C81E090E00E9447
:101910003702C801F801668141E00E946F0C81E046
:1019200090E00E943702C801F801668140E00E9401
:101930006F0C84E690E00E9437021F910F9108958A
:10194000CF92DF92EF92FF920F931F93CF93DF938B
:10195000F82EE92E282F392FC9018C01C0E0D0E0E4
:10196000C62EDD248F2D9E2DF801678141E00E9457
:101970002C0CA6010C2E02C0559547950A94E2F74F
:1019800041708F2D9E2DF80167810E946F0C21966A
:101990000F5F1F4FC830D10529F78F2D9E2D0E9454
:1019A0007D0CDF91CF911F910F91FF90EF90DF9011
:1019B000CF900895AF92BF92CF92DF92EF92FF92B5
:1019C0000F931F93CF93DF936C01E62EFC01838D61
:1019D0008F3F09F46FC0FCE1AF2EB12CAC0CBD1CE5
:1019E000C5010E941E0BAC01D601E0E0F0E001E071
:1019F00010E06E2D70E017962C911797C1E0D0E0A3
:101A0000C801022E02C0880F991F0A94E2F7809540
:101A1000909584239523AB010E2E02C055954795D2
:101A20000A94E2F74170507002C0440F551F2A9586
:101A3000E2F7482B592B31961196E430F105D9F68F
:101A40008E01F601068002C0000F111F0A94E2F712
:101A50000095109504231523C501B8010E940B0AB7
:101A600081E090E00E9437027E01F601068002C00C
:101A7000EE0CFF1C0A94E2F7E02AF12AC501B70137
:101A80000E940B0A81E090E00E943702F601068076
:101A900002C0CC0FDD1F0A94E2F7C095D095EC226E
:101AA000FD22C501B7010E940B0A84E690E00E9466
:101AB000370221C08601C0E0D0E0A62EBB24C601BB
:101AC000F801678141E00E942C0CA5010C2E02C098
:101AD000559547950A94E2F74170C601F801678170
:101AE0000E946F0C21960F5F1F4FC430D10539F74C
:101AF000C6010E947D0CDF91CF911F910F91FF9045
:101B0000EF90DF90CF90BF90AF9008951F93CF9349
:101B1000DF93EC01162F6C810E946F0C6D816F3F7B
:101B200021F0CE0140E00E946F0C8C8984FF05C03B
:101B3000CE01612F0E94A00C0EC0612F70E0A4E0C6
:101B400075956795AA95E1F7CE010E94DA0CCE0152
:101B5000612F0E94DA0CDF91CF911F91089541E02F
:101B60000E94860D81E090E0089540E00E94860D7D
:101B70000895FC016589862F8460858B6C60CF0198
:101B80000E94B50D0895DF93CF93CDB7DEB72897A8
:101B90000FB6F894DEBF0FBECDBF9C01FE0131969B
:101BA000A4EBB2E088E00D9001928150E1F7F901D9
:101BB000808D841710F4482F4150E42FF0E0EE0F91
:101BC000FF1FEC0FFD1F8181680F6068C9010E9433
:101BD000B50D28960FB6F894DEBF0FBECDBFCF91DE
:101BE000DF91089561E00E94B50D80ED97E00E94BD
:101BF000370208958F929F92AF92BF92CF92DF9259
:101C0000EF92FF920F931F93CF93DF93EC01962EE9
:101C1000A42E822E8B8D8F3F09F452C083EC93E06B
:101C20000E94CA071CE1E12EF12CEC0EFD1EC7013B
:101C30000E94D90BC70168E041E00E944F0BC70129
:101C400066E041E00E944F0BC70167E041E00E945F
:101C50004F0BCE0167E00E943A0C6D81662321F0A4
:101C6000C70141E00E944F0BC7016C8141E00E9417
:101C70004F0BC7016E8141E00E944F0B6E018E0138
:101C8000BB24C701F801678141E00E944F0BB39468
:101C90000F5F1F4FF4E0BF16A1F710E0C701F60178
:101CA000678540E00E944F0BC701F601678541E060
:101CB0000E94620A1F5F0894C11CD11C153071F785
:101CC000F1E0FA1518F48C8988608C8BA88E9A8EB6
:101CD000198E882031F081E0A81619F48C8984606F
:101CE0008C8B80E593EC0E943702CE016C8140E042
:101CF0000E946F0CCE016E8140E00E946F0C6D81DE
:101D00006F3F21F0CE0140E00E946F0C6C8964FDB2
:101D10001DC0CE0163E00E94DA0C84E991E10E94CB
:101D20003702CE0163E00E94DA0C84E991E10E945F
:101D30003702CE0163E00E94DA0C86E990E00E944F
:101D40003702CE0162E00E94DA0C16C06062CE015A
:101D50000E94B50D84E991E10E9437026C896062AE
:101D6000CE010E94B50D86E990E00E9437026C8991
:101D70006062CE010E94B50D6C896062CE010E9446
:101D8000B50D84E08D8BCE010E94B90DCE010E946D
:101D9000F20D82E08E8BCE0166E00E94B50DDF91E0
:101DA000CF911F910F91FF90EF90DF90CF90BF9058
:101DB000AF909F908F900895FC017183608313868C
:101DC0001286118610861782168215821482148656
:101DD00016861586538342830895CF93DF93FC01C3
:101DE000DB01C285D385209739F415969C938E9399
:101DF00014977387628713C0FE01808591850097D1
:101E000011F0FC01FACFB187A0871796FC93EE93EF
:101E100016978C819D8115969C938E931497DF91D4
:101E2000CF9108950895CF93DF93EC018C819D812C
:101E3000892B09F46FC081E593E060E071E00E94B6
:101E40004B06EC81FD816081718181E593E00E9408
:101E50004E0688819981009709F457C00E94F20DBF
:101E60008881998160E040E00E94C30DEC81FD8192
:101E7000848580FF06C0888199816FE071E00E94AF
:101E80004B06EC81FD8160817181888199810E947E
:101E90004B068881998160E041E00E94C30DEC818E
:101EA000FD818681978120853185892BE1F08285AE
:101EB0009385232B61F028813981892B21F0C90179
:101EC00061E171E01FC0C90162E271E01BC02881BD
:101ED0003981892B21F0C90163E371E013C0C90185
:101EE00064E471E00FC0232BD9F0828593852881AB
:101EF0003981892B21F0C90165E571E003C0C90171
:101F000066E671E00E944B060BC081E593E067E74F
:101F100071E004C081E593E066E871E00E944E063E
:101F2000DF91CF910895CF93DF93EC0181E593E0AA
:101F300067EA71E00E944E06EC81FD8182859385FF
:101F4000009729F09D838C83CE010E94130FDF91AF
:101F5000CF910895CF93DF93EC0181E593E068EB97
:101F600071E00E944E06EC81FD818481958100978D
:101F700029F09D838C83CE010E94130FDF91CF91B6
:101F80000895CF93DF93EC0181E593E064EC71E079
:101F90000E944E06EC81FD8180859185009729F095
:101FA0009D838C83CE010E94130FDF91CF91089502
:101FB000CF93DF93EC0181E593E06EEC71E00E943A
:101FC0004E06EC81FD8186819781009729F09D83E3
:101FD0008C83CE010E94130FDF91CF9108951F9340
:101FE000CF93DF93EC01162F81E593E069ED71E06B
:101FF0000E944E0613FF04C0CE010E94D80F1EC0DF
:1020000012FF04C0CE010E94C10F18C014FF04C00B
:10201000CE010E94AA0F12C011FD0DC010FF0EC00C
:10202000AC81BD811296ED91FC911397309719F018
:10203000CD01099503C0CE010E94930FDF91CF918E
:102040001F910895CF93DF93EC01888199810E94BD
:10205000FE0B682F882349F0CE010E94EF0F888184
:1020600099810E94FE0B8823D1F7DF91CF910895CB
:10207000FC017183608353834283558344830E94B0
:10208000130F08958CE394E00E94DD0B89E594E042
:102090000E94120F8FE594E068EE71E040E050E09E
:1020A0000E94DC0E8EE694E063EF71E040E050E0C9
:1020B0000E94DC0E8DE794E064E072E040E050E0C6
:1020C0000E94DC0E8CE894E069E172E040E050E0B0
:1020D0000E94DC0E089589E594E00E942210089584
:1020E000EF92FF920F931F93CF93DF9381E593E0DD
:1020F00040E855E260E070E00E94730381E593E000
:1021000069E272E00E944E068CE394E060E142E0F6
:1021100020E00E94FA0D8CE394E00E94F20D8FE023
:1021200090E00E94F506182F092F6FE272E040E060
:1021300050E00E94DC0E10939C0400939D048FE0FD
:1021400090E00E94F506182F092F60E472E040E04D
:1021500050E00E94DC0E8FE090E00E94F5067C01CA
:1021600060E572E048E351E10E94DC0EF70116865B
:1021700015868FE090E00E94F506EC0160E672E0C3
:1021800048E351E10E94DC0E81E090E09E878D875C
:1021900080919C0490919D04612F702F0E94ED0E00
:1021A000812F902FB7010E94ED0E812F902FBE013D
:1021B0000E94ED0E8FEC93E060E070E00E94D50786
:1021C00080939B0481E593E06FE672E00E944B06EA
:1021D00081E593E060919B044AE050E00E942D0667
:1021E00080919B04823010F010929B0480919B049C
:1021F000882329F4F70184858160848703C08C8556
:1022000081608C8780919C0490919D046FE574E0BF
:102210000E94ED0E8FE594E06EE674E00E94ED0EF4
:102220008FE594E06DE774E00E94ED0E8FE594E099
:102230006CE874E00E94ED0E40919C0450919D0466
:1022400089E594E06CE374E00E94381089E594E03D
:102250000E94130FDF91CF911F910F91FF90EF908C
:1022600008950E9441020E9470100E946B10FDCFE1
:10227000DC011D968C911D9780939B041C968C917C
:102280001C9780FD1BC081601C968C931C97149634
:10229000ED91FC9115970284F385E02D09C0EA17B2
:1022A000FB0719F084858E7F84870084F185E02DFB
:1022B0003097A9F789E594E00E94130F0895629F73
:1022C000D001739FF001829FE00DF11D649FE00D2E
:1022D000F11D929FF00D839FF00D749FF00D659F8F
:1022E000F00D9927729FB00DE11DF91F639FB00D8E
:1022F000E11DF91FBD01CF0111240895AA1BBB1BCD
:1023000051E107C0AA1FBB1FA617B70710F0A61BF5
:10231000B70B881F991F5A95A9F780959095BC0116
:10232000CD01089597FB092E07260AD077FD04D02A
:10233000E5DF06D000201AF4709561957F4F08956F
:10234000F6F7909581959F4F0895A1E21A2EAA1B4A
:10235000BB1BFD010DC0AA1FBB1FEE1FFF1FA21755
:10236000B307E407F50720F0A21BB30BE40BF50B52
:10237000661F771F881F991F1A9469F760957095DB
:10238000809590959B01AC01BD01CF010895EE0FA2
:0E239000FF1F0590F491E02D0994F894FFCF03
:10239E006174206D656E75206974656D3A20002A32
:1023AE0000202020202020205B55702F446F776E58
:1023BE005D00205B55702F446F776E7C456E7465A3
:1023CE00725D002020202020202020202020205B55
:1023DE0055705D002020202020205B55707C456EBE
:1023EE007465725D00202020202020202020205B9C
:1023FE00446F776E5D00202020205B446F776E7CEB
:10240E00456E7465725D006572726F72202D206E5E
:10241E006F204C4344006572726F72202D206E6FD8
:10242E002063757272656E74206974656D20746FA9
:10243E00207072696E7400676F746F2066697273B4
:10244E0074206368696C6400676F746F20706172CA
:10245E00656E7400676F746F206E65787400676FB9
:10246E00746F207072696F7200627574746F6E2073
:10247E00707265737365640053657474696E677307
:10248E00203E005365742073746172742074696DFC
:10249E0065203E005365742074696D657220647505
:1024AE00726174696F6E203E0053657420646174AE
:1024BE00652F74696D65203E0073657475700043F9
:1024CE0068617267696E6720456E61626C65640053
:1024DE004368617267696E67204D6F6465203E00C8
:1024EE004E6F726D616C206368617267696E670012
:1024FE0054696D6564206368617267696E67006315
:10250E0068617267696E67206D6F64653A2000209E
:10251E0000A2040000FF0000000065044205F9035C
:10252E002A040A0453040000000000050000000005
:10253E007A07490702070B07200731070000000042
:0C254E00AF0D42050000400014005400D6
:00000001FF
